{
  "contractName": "AirdropTemplate",
  "abi": [
    {
      "constant": false,
      "inputs": [
        {
          "name": "_owner",
          "type": "address"
        }
      ],
      "name": "assignOwner",
      "outputs": [],
      "payable": false,
      "stateMutability": "nonpayable",
      "type": "function"
    },
    {
      "constant": true,
      "inputs": [],
      "name": "getOwner",
      "outputs": [
        {
          "name": "",
          "type": "address"
        }
      ],
      "payable": false,
      "stateMutability": "view",
      "type": "function"
    },
    {
      "constant": false,
      "inputs": [
        {
          "name": "_newOwner",
          "type": "address"
        }
      ],
      "name": "transferOwnership",
      "outputs": [],
      "payable": false,
      "stateMutability": "nonpayable",
      "type": "function"
    },
    {
      "constant": true,
      "inputs": [],
      "name": "token",
      "outputs": [
        {
          "name": "",
          "type": "address"
        }
      ],
      "payable": false,
      "stateMutability": "view",
      "type": "function"
    },
    {
      "inputs": [
        {
          "name": "_tokenAddress",
          "type": "address"
        },
        {
          "name": "_owner",
          "type": "address"
        }
      ],
      "payable": false,
      "stateMutability": "nonpayable",
      "type": "constructor"
    },
    {
      "anonymous": false,
      "inputs": [
        {
          "indexed": true,
          "name": "from",
          "type": "address"
        },
        {
          "indexed": true,
          "name": "to",
          "type": "address"
        }
      ],
      "name": "OwnershipTransferred",
      "type": "event"
    },
    {
      "constant": false,
      "inputs": [
        {
          "name": "_recipientAddresses",
          "type": "address[]"
        },
        {
          "name": "_tokensToSend",
          "type": "uint256[]"
        }
      ],
      "name": "multiValueAirdrop",
      "outputs": [],
      "payable": false,
      "stateMutability": "nonpayable",
      "type": "function"
    },
    {
      "constant": false,
      "inputs": [
        {
          "name": "_recipientAddresses",
          "type": "address[]"
        },
        {
          "name": "_tokensToSend",
          "type": "uint256"
        }
      ],
      "name": "singleValueAirdrop",
      "outputs": [],
      "payable": false,
      "stateMutability": "nonpayable",
      "type": "function"
    },
    {
      "constant": false,
      "inputs": [
        {
          "name": "_recipientAddress",
          "type": "address"
        },
        {
          "name": "_tokensToWithdraw",
          "type": "uint256"
        }
      ],
      "name": "withdrawTokens",
      "outputs": [],
      "payable": false,
      "stateMutability": "nonpayable",
      "type": "function"
    },
    {
      "constant": true,
      "inputs": [],
      "name": "getTokenAddress",
      "outputs": [
        {
          "name": "",
          "type": "address"
        }
      ],
      "payable": false,
      "stateMutability": "view",
      "type": "function"
    }
  ],
  "bytecode": "0x608060405234801561001057600080fd5b50604051604080610a098339810180604052604081101561003057600080fd5b50805160209091015160018054600160a060020a031916600160a060020a0384161790556100668164010000000061006d810204565b50506100a5565b600054600160a060020a03161561008357600080fd5b60008054600160a060020a031916600160a060020a0392909216919091179055565b610955806100b46000396000f3fe6080604052600436106100745763ffffffff60e060020a60003504166306b091f9811461007957806310fe9ae8146100b45780637f12caaa146100e5578063893d20e814610118578063bd6b60941461012d578063ce298f9414610261578063f2fde38b14610313578063fc0c546a14610346575b600080fd5b34801561008557600080fd5b506100b26004803603604081101561009c57600080fd5b50600160a060020a03813516906020013561035b565b005b3480156100c057600080fd5b506100c961044a565b60408051600160a060020a039092168252519081900360200190f35b3480156100f157600080fd5b506100b26004803603602081101561010857600080fd5b5035600160a060020a0316610459565b34801561012457600080fd5b506100c961049e565b34801561013957600080fd5b506100b26004803603604081101561015057600080fd5b81019060208101813564010000000081111561016b57600080fd5b82018360208201111561017d57600080fd5b8035906020019184602083028401116401000000008311171561019f57600080fd5b91908080602002602001604051908101604052809392919081815260200183836020028082843760009201919091525092959493602081019350359150506401000000008111156101ef57600080fd5b82018360208201111561020157600080fd5b8035906020019184602083028401116401000000008311171561022357600080fd5b9190808060200260200160405190810160405280939291908181526020018383602002808284376000920191909152509295506104ad945050505050565b34801561026d57600080fd5b506100b26004803603604081101561028457600080fd5b81019060208101813564010000000081111561029f57600080fd5b8201836020820111156102b157600080fd5b803590602001918460208302840111640100000000831117156102d357600080fd5b9190808060200260200160405190810160405280939291908181526020018383602002808284376000920191909152509295505091359250610682915050565b34801561031f57600080fd5b506100b26004803603602081101561033657600080fd5b5035600160a060020a03166107bc565b34801561035257600080fd5b506100c96108fa565b600054600160a060020a031633146103ab576040805160e560020a62461bcd02815260206004820152601b602482015260008051602061090a833981519152604482015290519081900360640190fd5b600154604080517fa9059cbb000000000000000000000000000000000000000000000000000000008152600160a060020a038581166004830152602482018590529151919092169163a9059cbb9160448083019260209291908290030181600087803b15801561041a57600080fd5b505af115801561042e573d6000803e3d6000fd5b505050506040513d602081101561044457600080fd5b50505050565b600154600160a060020a031690565b600054600160a060020a03161561046f57600080fd5b6000805473ffffffffffffffffffffffffffffffffffffffff1916600160a060020a0392909216919091179055565b600054600160a060020a031690565b600054600160a060020a031633146104fd576040805160e560020a62461bcd02815260206004820152601b602482015260008051602061090a833981519152604482015290519081900360640190fd5b805182511461057c576040805160e560020a62461bcd02815260206004820152603360248201527f4164647265737320616e642076616c756520617272617973206d75737420626560448201527f206f66207468652073616d65206c656e67746800000000000000000000000000606482015290519081900360840190fd5b60005b825181101561067d57825160009084908390811061059957fe5b60209081029091010151600160a060020a031614610675576001548351600160a060020a039091169063a9059cbb908590849081106105d457fe5b9060200190602002015184848151811015156105ec57fe5b906020019060200201516040518363ffffffff1660e060020a0281526004018083600160a060020a0316600160a060020a0316815260200182815260200192505050602060405180830381600087803b15801561064857600080fd5b505af115801561065c573d6000803e3d6000fd5b505050506040513d602081101561067257600080fd5b50505b60010161057f565b505050565b600054600160a060020a031633146106d2576040805160e560020a62461bcd02815260206004820152601b602482015260008051602061090a833981519152604482015290519081900360640190fd5b60005b825181101561067d5782516000908490839081106106ef57fe5b60209081029091010151600160a060020a0316146107b4576001548351600160a060020a039091169063a9059cbb9085908490811061072a57fe5b90602001906020020151846040518363ffffffff1660e060020a0281526004018083600160a060020a0316600160a060020a0316815260200182815260200192505050602060405180830381600087803b15801561078757600080fd5b505af115801561079b573d6000803e3d6000fd5b505050506040513d60208110156107b157600080fd5b50505b6001016106d5565b600054600160a060020a0316331461080c576040805160e560020a62461bcd02815260206004820152601b602482015260008051602061090a833981519152604482015290519081900360640190fd5b600160a060020a0381161515610892576040805160e560020a62461bcd02815260206004820152602b60248201527f546865206e6577206f776e6572277320616464726573732063616e6e6f74206260448201527f6520307830302e2e2e3030000000000000000000000000000000000000000000606482015290519081900360840190fd5b60008054604051600160a060020a03808516939216917f8be0079c531659141344cd1fd0a4f28419497f9722a3daafe3b4186f6b6457e091a36000805473ffffffffffffffffffffffffffffffffffffffff1916600160a060020a0392909216919091179055565b600154600160a060020a03168156fe6d73672e73656e646572206973206e6f7420746865206f776e65720000000000a165627a7a72305820ca592b82961988f073bae51c1ca8a80b7b5e6e5e5f4c97fb1ccd6e188c9da5c70029",
  "source": "pragma solidity ^0.5.0;\n\nimport \"./InterfaceERC20.sol\";\nimport \"./Owned.sol\";\n\ncontract AirdropTemplate is Owned {\n    \n    InterfaceERC20 public token;\n    \n    /**\n    * Creates a token object which points to the token on the Ethereum blockchain using \n    * the token's contract address. The constructor also assigns the owner of the contract\n    * to be the address from the the transaction originated.\n    * \n    * @param _tokenAddress - The address of the token which will be getting airdropped. \n    * @param _owner - The wallet address of the owner of the contract. \n    * */\n    constructor(address _tokenAddress, address _owner) public {\n        //Take the address of the erc20 token and create an instance of InterfaceERC20\n        //which will be the object from which the token's transfer function will be invoked\n        //(many times in a single transaction) for the airdrop. \n        token = InterfaceERC20(_tokenAddress);\n        //Pass the owner's address (i.e., the one who is creating the airdrop contract) to\n        //the Owned.sol smart contract. This is done because only the owner will be allowed\n        //to airdrop tokens so it is important to at least know the owner's ETH address. \n        assignOwner(_owner);\n    }\n    \n    \n    /**\n    * Allows the owner to airdrop tokens to multiple recipients were each recipient can receive\n    * a different amounts of tokens. \n    * \n    * @param _recipientAddresses - The wallet addresses of the recipients.\n    * @param _tokensToSend - The corresponding amounts of tokens to send to each recipient.\n    * */\n    function multiValueAirdrop(address[] memory _recipientAddresses, uint[] memory _tokensToSend) public onlyOwner {\n        //Here we make a check (much like an assertion) to ensure that the length of the arrays of \n        //both arguments are of the same size. If not exit the function. \n        require(_recipientAddresses.length == _tokensToSend.length, \"Address and value arrays must be of the same length\");\n        //Now iterate over one of the arrays (doesn't matter which as they are both of the same size).\n        for(uint i = 0; i < _recipientAddresses.length; i++) {\n            if(_recipientAddresses[i] != address(0x0)) {\n                //If the address in the _recipientAddresses[i] is not of the form \"0x00...00\"\n                //then transfer the corresponding amount of tokens to that address from the \n                //_tokensToSend array in the same index. \n                token.transfer(_recipientAddresses[i], _tokensToSend[i]);\n            }\n        }\n    }\n    \n    \n    /**\n    * Allows the owner to airdrop tokens to multiple recipients were each recipient receives \n    * the same amount of tokens. \n    * \n    * @param _recipientAddresses - The wallet addresses of the recipients.\n    * @param _tokensToSend - The total amount of tokens to send to all recipients.\n    * */\n    function singleValueAirdrop(address[] memory _recipientAddresses, uint _tokensToSend) public onlyOwner {\n        //For the single value airdrop we just iterate over the _recipientAddresses array and\n        //send the same amount of tokens to each address. \n        for(uint i = 0; i < _recipientAddresses.length; i++) {\n            if(_recipientAddresses[i] != address(0x0)) {\n                //If the address in the _recipientAddresses[i] is not of the form \"0x00...00\"\n                //then transfer the tokens to the address. \n                token.transfer(_recipientAddresses[i], _tokensToSend);\n            }\n        }\n    }\n    \n    \n    /**\n    * Allows the owner to withdraw tokens from the Airdrop contract. \n    * \n    * @param _recipientAddress - The address to send the tokens to.\n    * @param _tokensToWithdraw - The total amount of tokens to withdraw. \n    * */\n    function withdrawTokens(address _recipientAddress, uint _tokensToWithdraw) public onlyOwner {\n        token.transfer(_recipientAddress, _tokensToWithdraw);\n    }\n\n\n\n    /**\n    * Allows anyone to query the address of the token which the airdrop \n    * contract will be distributing.\n    **/\n    function getTokenAddress() public view returns(address) {\n        return address(token);\n    }\n}\n",
  "sourcePath": "/home/zenos/university/final_year_project/project_code/smart_contracts/contracts/AirdropTemplate.sol",
  "compiler": {
    "name": "solc",
    "version": "0.5.0+commit.1d4f565a.Emscripten.clang"
  },
  "schemaVersion": "3.0.6",
  "updatedAt": "2019-04-20T14:10:42.550Z",
  "devdoc": {
    "methods": {
      "constructor": {
        "params": {
          "_owner": "- The wallet address of the owner of the contract. ",
          "_tokenAddress": "- The address of the token which will be getting airdropped. "
        }
      },
      "getOwner()": {
        "return": "The address of the owner."
      },
      "multiValueAirdrop(address[],uint256[])": {
        "params": {
          "_recipientAddresses": "- The wallet addresses of the recipients.",
          "_tokensToSend": "- The corresponding amounts of tokens to send to each recipient."
        }
      },
      "singleValueAirdrop(address[],uint256)": {
        "params": {
          "_recipientAddresses": "- The wallet addresses of the recipients.",
          "_tokensToSend": "- The total amount of tokens to send to all recipients."
        }
      },
      "transferOwnership(address)": {
        "params": {
          "_newOwner": "- The address of the new owner. "
        }
      },
      "withdrawTokens(address,uint256)": {
        "params": {
          "_recipientAddress": "- The address to send the tokens to.",
          "_tokensToWithdraw": "- The total amount of tokens to withdraw. "
        }
      }
    }
  },
  "userdoc": {
    "methods": {
      "assignOwner(address)": {
        "notice": "Initializes the owner variable with an address (can only be invoked once). "
      },
      "constructor": "Creates a token object which points to the token on the Ethereum blockchain using  the token's contract address. The constructor also assigns the owner of the contract to be the address from the the transaction originated. ",
      "getOwner()": {
        "notice": "Returns the ETH address of the owner of any contract which  inherits this contract. "
      },
      "getTokenAddress()": {
        "notice": "Allows anyone to query the address of the token which the airdrop  contract will be distributing.*"
      },
      "multiValueAirdrop(address[],uint256[])": {
        "notice": "Allows the owner to airdrop tokens to multiple recipients were each recipient can receive a different amounts of tokens.  "
      },
      "singleValueAirdrop(address[],uint256)": {
        "notice": "Allows the owner to airdrop tokens to multiple recipients were each recipient receives  the same amount of tokens.  "
      },
      "transferOwnership(address)": {
        "notice": "Allows the current owner of the contract and all contracts  which inherit this contract to transfer ownership to another  ETH address. This function can only be invoked by the owner  of the contract.  "
      },
      "withdrawTokens(address,uint256)": {
        "notice": "Allows the owner to withdraw tokens from the Airdrop contract.  "
      }
    }
  }
}