{
  "contractName": "ContractFactory",
  "abi": [
    {
      "anonymous": false,
      "inputs": [
        {
          "indexed": true,
          "name": "by",
          "type": "address"
        },
        {
          "indexed": true,
          "name": "addressOfToken",
          "type": "address"
        },
        {
          "indexed": false,
          "name": "symbolOfToken",
          "type": "string"
        }
      ],
      "name": "TokenDeployed",
      "type": "event"
    },
    {
      "anonymous": false,
      "inputs": [
        {
          "indexed": true,
          "name": "by",
          "type": "address"
        },
        {
          "indexed": true,
          "name": "addressOfAirdrop",
          "type": "address"
        },
        {
          "indexed": false,
          "name": "symbolOfToken",
          "type": "string"
        }
      ],
      "name": "AirdropDeployed",
      "type": "event"
    },
    {
      "anonymous": false,
      "inputs": [
        {
          "indexed": true,
          "name": "by",
          "type": "address"
        },
        {
          "indexed": true,
          "name": "addressOfICO",
          "type": "address"
        },
        {
          "indexed": false,
          "name": "symbolOfToken",
          "type": "string"
        }
      ],
      "name": "ICODeployed",
      "type": "event"
    },
    {
      "constant": false,
      "inputs": [
        {
          "name": "_totalSupply",
          "type": "uint256"
        },
        {
          "name": "_decimals",
          "type": "uint8"
        },
        {
          "name": "_name",
          "type": "string"
        },
        {
          "name": "_symbol",
          "type": "string"
        }
      ],
      "name": "deploySimpleToken",
      "outputs": [],
      "payable": false,
      "stateMutability": "nonpayable",
      "type": "function"
    },
    {
      "constant": false,
      "inputs": [
        {
          "name": "_totalSupply",
          "type": "uint256"
        },
        {
          "name": "_decimals",
          "type": "uint8"
        },
        {
          "name": "_name",
          "type": "string"
        },
        {
          "name": "_symbol",
          "type": "string"
        }
      ],
      "name": "deployMintableToken",
      "outputs": [],
      "payable": false,
      "stateMutability": "nonpayable",
      "type": "function"
    },
    {
      "constant": false,
      "inputs": [
        {
          "name": "_totalSupply",
          "type": "uint256"
        },
        {
          "name": "_decimals",
          "type": "uint8"
        },
        {
          "name": "_name",
          "type": "string"
        },
        {
          "name": "_symbol",
          "type": "string"
        }
      ],
      "name": "deployBurnableToken",
      "outputs": [],
      "payable": false,
      "stateMutability": "nonpayable",
      "type": "function"
    },
    {
      "constant": false,
      "inputs": [
        {
          "name": "_totalSupply",
          "type": "uint256"
        },
        {
          "name": "_decimals",
          "type": "uint8"
        },
        {
          "name": "_name",
          "type": "string"
        },
        {
          "name": "_symbol",
          "type": "string"
        }
      ],
      "name": "deployMintableBurnableToken",
      "outputs": [],
      "payable": false,
      "stateMutability": "nonpayable",
      "type": "function"
    },
    {
      "constant": false,
      "inputs": [
        {
          "name": "_tokenAddress",
          "type": "address"
        }
      ],
      "name": "deployAirdropContract",
      "outputs": [],
      "payable": false,
      "stateMutability": "nonpayable",
      "type": "function"
    },
    {
      "constant": false,
      "inputs": [
        {
          "name": "_tokenAddress",
          "type": "address"
        },
        {
          "name": "_tokenDecimals",
          "type": "uint256"
        },
        {
          "name": "_ethSoftCap",
          "type": "uint256"
        },
        {
          "name": "_rate",
          "type": "uint256"
        },
        {
          "name": "_durationInDays",
          "type": "uint256"
        }
      ],
      "name": "deployICOContract",
      "outputs": [],
      "payable": false,
      "stateMutability": "nonpayable",
      "type": "function"
    }
  ],
  "bytecode": "0x608060405234801561001057600080fd5b5061395e806100206000396000f3fe608060405260043610620000655763ffffffff60e060020a60003504166314d140c181146200006a5780635a33214e14620000bb5780636d6c7041146200020e57806377811bae146200036157806393a3da7e14620004b457806393bf87b814620004eb575b600080fd5b3480156200007757600080fd5b50620000b9600480360360a08110156200009057600080fd5b50600160a060020a0381351690602081013590604081013590606081013590608001356200063e565b005b348015620000c857600080fd5b50620000b960048036036080811015620000e157600080fd5b81359160ff602082013516918101906060810160408201356401000000008111156200010c57600080fd5b8201836020820111156200011f57600080fd5b803590602001918460018302840111640100000000831117156200014257600080fd5b91908080601f01602080910402602001604051908101604052809392919081815260200183838082843760009201919091525092959493602081019350359150506401000000008111156200019657600080fd5b820183602082011115620001a957600080fd5b80359060200191846001830284011164010000000083111715620001cc57600080fd5b91908080601f01602080910402602001604051908101604052809392919081815260200183838082843760009201919091525092955062000826945050505050565b3480156200021b57600080fd5b50620000b9600480360360808110156200023457600080fd5b81359160ff602082013516918101906060810160408201356401000000008111156200025f57600080fd5b8201836020820111156200027257600080fd5b803590602001918460018302840111640100000000831117156200029557600080fd5b91908080601f0160208091040260200160405190810160405280939291908181526020018383808284376000920191909152509295949360208101935035915050640100000000811115620002e957600080fd5b820183602082011115620002fc57600080fd5b803590602001918460018302840111640100000000831117156200031f57600080fd5b91908080601f0160208091040260200160405190810160405280939291908181526020018383808284376000920191909152509295506200083d945050505050565b3480156200036e57600080fd5b50620000b9600480360360808110156200038757600080fd5b81359160ff60208201351691810190606081016040820135640100000000811115620003b257600080fd5b820183602082011115620003c557600080fd5b80359060200191846001830284011164010000000083111715620003e857600080fd5b91908080601f01602080910402602001604051908101604052809392919081815260200183838082843760009201919091525092959493602081019350359150506401000000008111156200043c57600080fd5b8201836020820111156200044f57600080fd5b803590602001918460018302840111640100000000831117156200047257600080fd5b91908080601f0160208091040260200160405190810160405280939291908181526020018383808284376000920191909152509295506200084f945050505050565b348015620004c157600080fd5b50620000b960048036036020811015620004da57600080fd5b5035600160a060020a031662000861565b348015620004f857600080fd5b50620000b9600480360360808110156200051157600080fd5b81359160ff602082013516918101906060810160408201356401000000008111156200053c57600080fd5b8201836020820111156200054f57600080fd5b803590602001918460018302840111640100000000831117156200057257600080fd5b91908080601f0160208091040260200160405190810160405280939291908181526020018383808284376000920191909152509295949360208101935035915050640100000000811115620005c657600080fd5b820183602082011115620005d957600080fd5b80359060200191846001830284011164010000000083111715620005fc57600080fd5b91908080601f01602080910402602001604051908101604052809392919081815260200183838082843760009201919091525092955062000a22945050505050565b60008585858585336200065062000c2a565b600160a060020a03968716815260208101959095526040808601949094526060850192909252608084015290921660a082015290519081900360c001906000f080158015620006a3573d6000803e3d6000fd5b50905080600160a060020a031633600160a060020a03167fd7e001c65def54e3b508a38b3d7473970398149c99b498e165cc69d961e1360e88600160a060020a031663150704016040518163ffffffff1660e060020a02815260040160006040518083038186803b1580156200071857600080fd5b505afa1580156200072d573d6000803e3d6000fd5b505050506040513d6000823e601f3d908101601f1916820160405260208110156200075757600080fd5b8101908080516401000000008111156200077057600080fd5b820160208101848111156200078457600080fd5b81516401000000008111828201871017156200079f57600080fd5b50506040805160208082528351818301528351939650909450849350908301919085019080838360005b83811015620007e3578181015183820152602001620007c9565b50505050905090810190601f168015620008115780820380516001836020036101000a031916815260200191505b509250505060405180910390a3505050505050565b620008378484848460018062000a2e565b50505050565b62000837848484846000600162000a2e565b62000837848484846001600062000a2e565b600081336200086f62000c3b565b600160a060020a03928316815291166020820152604080519182900301906000f080158015620008a3573d6000803e3d6000fd5b50905080600160a060020a031633600160a060020a03167f10452c605acf8bbe6d4070cf3595ef15bd0960e61cd80499dc66e947e3e7a95684600160a060020a031663150704016040518163ffffffff1660e060020a02815260040160006040518083038186803b1580156200091857600080fd5b505afa1580156200092d573d6000803e3d6000fd5b505050506040513d6000823e601f3d908101601f1916820160405260208110156200095757600080fd5b8101908080516401000000008111156200097057600080fd5b820160208101848111156200098457600080fd5b81516401000000008111828201871017156200099f57600080fd5b50506040805160208082528351818301528351939650909450849350908301919085019080838360005b83811015620009e3578181015183820152602001620009c9565b50505050905090810190601f16801562000a115780820380516001836020036101000a031916815260200191505b509250505060405180910390a35050565b62000837848484846000805b60008686868686863362000a4162000c4c565b87815260ff8716602080830191909152841515608083015283151560a0830152600160a060020a03831660c083015260e0604083018181528851918401919091528751909160608401916101008501918a019080838360005b8381101562000ab457818101518382015260200162000a9a565b50505050905090810190601f16801562000ae25780820380516001836020036101000a031916815260200191505b50838103825287518152875160209182019189019080838360005b8381101562000b1757818101518382015260200162000afd565b50505050905090810190601f16801562000b455780820380516001836020036101000a031916815260200191505b509950505050505050505050604051809103906000f08015801562000b6e573d6000803e3d6000fd5b50905080600160a060020a031633600160a060020a03167f645e9cc0b6633c2d425a900a1913215f5efdcaa291949130571d98b7b7c4be64866040518080602001828103825283818151815260200191508051906020019080838360005b8381101562000be657818101518382015260200162000bcc565b50505050905090810190601f16801562000c145780820380516001836020036101000a031916815260200191505b509250505060405180910390a350505050505050565b604051610fc58062000c5e83390190565b604051610a098062001c2383390190565b604051611307806200262c8339019056fe608060405234801561001057600080fd5b5060405160c08062000fc5833981018060405260c081101561003157600080fd5b508051602082015160408301516060840151608085015160a09095015160018054600160a060020a031916600160a060020a03871617905560028490556003839055600482905593949293919290916100b161009d83620151806401000000006100e18102610dc31704565b4290640100000000610df561011582021704565b6005556006805461ffff1916905560006007556100d681640100000000610127810204565b50505050505061015f565b60008215156100f25750600061010f565b82820282848281151561010157fe5b041461010c57600080fd5b90505b92915050565b60008282018381101561010c57600080fd5b600054600160a060020a03161561013d57600080fd5b60008054600160a060020a031916600160a060020a0392909216919091179055565b610e56806200016f6000396000f3fe6080604052600436106101275763ffffffff7c010000000000000000000000000000000000000000000000000000000060003504166306b091f9811461013257806310fe9ae81461016b57806329dcb0cf1461019c5780632b9edee9146101c35780632c4e722e146101ec5780633b97e85614610201578063518ab2a814610216578063680a50cb1461022b57806374e7493b146102555780637f12caaa1461027f578063893d20e8146102b257806394c33163146102c757806396b98862146102dc5780639fac9abf1461030f578063a0ef91df14610324578063b21307e914610339578063b5545a3c1461034e578063bdeaa88f14610363578063bf2c13c114610378578063ec8ac4d81461038d578063f2fde38b146103b3578063fc0c546a146103e6575b610130336103fb565b005b34801561013e57600080fd5b506101306004803603604081101561015557600080fd5b50600160a060020a0381351690602001356106ac565b34801561017757600080fd5b5061018061079b565b60408051600160a060020a039092168252519081900360200190f35b3480156101a857600080fd5b506101b16107aa565b60408051918252519081900360200190f35b3480156101cf57600080fd5b506101d86107b0565b604080519115158252519081900360200190f35b3480156101f857600080fd5b506101b16107b9565b34801561020d57600080fd5b506101b16107bf565b34801561022257600080fd5b506101b16107c5565b34801561023757600080fd5b506101306004803603602081101561024e57600080fd5b50356107cb565b34801561026157600080fd5b506101306004803603602081101561027857600080fd5b5035610867565b34801561028b57600080fd5b50610130600480360360208110156102a257600080fd5b5035600160a060020a031661093a565b3480156102be57600080fd5b5061018061097f565b3480156102d357600080fd5b506101b161098e565b3480156102e857600080fd5b506101b1600480360360208110156102ff57600080fd5b5035600160a060020a0316610994565b34801561031b57600080fd5b506101d86109a6565b34801561033057600080fd5b506101306109c4565b34801561034557600080fd5b506101b1610afe565b34801561035a57600080fd5b50610130610b04565b34801561036f57600080fd5b50610130610be1565b34801561038457600080fd5b506101d8610c42565b610130600480360360208110156103a357600080fd5b5035600160a060020a03166103fb565b3480156103bf57600080fd5b50610130600480360360208110156103d657600080fd5b5035600160a060020a0316610c50565b3480156103f257600080fd5b50610180610d8e565b600160a060020a0381161515610481576040805160e560020a62461bcd02815260206004820152602860248201527f54686520696e766573746f7220616464726573732063616e6e6f74206265203060448201527f7830302e2e2e3030000000000000000000000000000000000000000000000000606482015290519081900360840190fd5b6104896109a6565b15610504576040805160e560020a62461bcd02815260206004820152603560248201527f54686520646561646c696e652068617320706173736564206f7220746865204960448201527f434f20686173206265656e2063616e63656c6c65640000000000000000000000606482015290519081900360840190fd5b6000610548610529600254600a0a670de0b6b3a7640000610d9d90919063ffffffff16565b60045461053c903463ffffffff610dc316565b9063ffffffff610d9d16565b600154604080517fa9059cbb000000000000000000000000000000000000000000000000000000008152600160a060020a03868116600483015260248201859052915193945091169163a9059cbb916044808201926020929091908290030181600087803b1580156105b957600080fd5b505af11580156105cd573d6000803e3d6000fd5b505050506040513d60208110156105e357600080fd5b5050604080518281529051600160a060020a038416917f8f28852646c20cc973d3a8218f7eefed58c25c909f78f0265af4818c3d4dc271919081900360200190a260035430311080159061063a575060065460ff16155b1561064d576006805460ff191660011790555b600754610660908263ffffffff610df516565b600755600160a060020a03821660009081526008602052604090205461068c903463ffffffff610df516565b600160a060020a0390921660009081526008602052604090209190915550565b600054600160a060020a031633146106fc576040805160e560020a62461bcd02815260206004820152601b6024820152600080516020610e0b833981519152604482015290519081900360640190fd5b600154604080517fa9059cbb000000000000000000000000000000000000000000000000000000008152600160a060020a038581166004830152602482018590529151919092169163a9059cbb9160448083019260209291908290030181600087803b15801561076b57600080fd5b505af115801561077f573d6000803e3d6000fd5b505050506040513d602081101561079557600080fd5b50505050565b600154600160a060020a031690565b60055481565b60065460ff1681565b60045481565b60025481565b60075481565b600054600160a060020a0316331461081b576040805160e560020a62461bcd02815260206004820152601b6024820152600080516020610e0b833981519152604482015290519081900360640190fd5b600554610841610834836201518063ffffffff610dc316565b429063ffffffff610df516565b1061084b57600080fd5b610861610834826201518063ffffffff610dc316565b60055550565b600054600160a060020a031633146108b7576040805160e560020a62461bcd02815260206004820152601b6024820152600080516020610e0b833981519152604482015290519081900360640190fd5b60008111610935576040805160e560020a62461bcd02815260206004820152602660248201527f546865206e65772072617465206d75737420626520677265617465722074686160448201527f6e207a65726f0000000000000000000000000000000000000000000000000000606482015290519081900360840190fd5b600455565b600054600160a060020a03161561095057600080fd5b6000805473ffffffffffffffffffffffffffffffffffffffff1916600160a060020a0392909216919091179055565b600054600160a060020a031690565b60075490565b60086020526000908152604090205481565b60006005544211806109bf5750600654610100900460ff165b905090565b600054600160a060020a03163314610a14576040805160e560020a62461bcd02815260206004820152601b6024820152600080516020610e0b833981519152604482015290519081900360640190fd5b60065460ff168015610a2e5750600654610100900460ff16155b1515610aaa576040805160e560020a62461bcd02815260206004820152602560248201527f5769746864726177616c73206e6f7420706f737369626c65206174207468697360448201527f2074696d65000000000000000000000000000000000000000000000000000000606482015290519081900360840190fd5b610ac3610ab561097f565b600160a060020a0316610e07565b604051600160a060020a039190911690303180156108fc02916000818181858888f19350505050158015610afb573d6000803e3d6000fd5b50565b60035481565b60065460ff16158015610b1a5750610b1a6109a6565b80610b2c5750600654610100900460ff165b1515610b82576040805160e560020a62461bcd02815260206004820181905260248201527f4e6f20726566756e647320706f737369626c6520617420746869732074696d65604482015290519081900360640190fd5b3360009081526008602052604081205411610b9c57600080fd5b33600081815260086020526040808220805490839055905190929183156108fc02918491818181858888f19350505050158015610bdd573d6000803e3d6000fd5b5050565b600054600160a060020a03163314610c31576040805160e560020a62461bcd02815260206004820152601b6024820152600080516020610e0b833981519152604482015290519081900360640190fd5b6006805461ff001916610100179055565b600654610100900460ff1681565b600054600160a060020a03163314610ca0576040805160e560020a62461bcd02815260206004820152601b6024820152600080516020610e0b833981519152604482015290519081900360640190fd5b600160a060020a0381161515610d26576040805160e560020a62461bcd02815260206004820152602b60248201527f546865206e6577206f776e6572277320616464726573732063616e6e6f74206260448201527f6520307830302e2e2e3030000000000000000000000000000000000000000000606482015290519081900360840190fd5b60008054604051600160a060020a03808516939216917f8be0079c531659141344cd1fd0a4f28419497f9722a3daafe3b4186f6b6457e091a36000805473ffffffffffffffffffffffffffffffffffffffff1916600160a060020a0392909216919091179055565b600154600160a060020a031681565b6000808211610dab57600080fd5b60008284811515610db857fe5b049150505b92915050565b6000821515610dd457506000610dbd565b828202828482811515610de357fe5b0414610dee57600080fd5b9392505050565b600082820183811015610dee57600080fd5b9056fe6d73672e73656e646572206973206e6f7420746865206f776e65720000000000a165627a7a72305820c28c02726fc6be5d30427ce35835aec859d2148f9c8e45439d5cc81e9d5639300029608060405234801561001057600080fd5b50604051604080610a098339810180604052604081101561003057600080fd5b50805160209091015160018054600160a060020a031916600160a060020a0384161790556100668164010000000061006d810204565b50506100a5565b600054600160a060020a03161561008357600080fd5b60008054600160a060020a031916600160a060020a0392909216919091179055565b610955806100b46000396000f3fe6080604052600436106100745763ffffffff60e060020a60003504166306b091f9811461007957806310fe9ae8146100b45780637f12caaa146100e5578063893d20e814610118578063bd6b60941461012d578063ce298f9414610261578063f2fde38b14610313578063fc0c546a14610346575b600080fd5b34801561008557600080fd5b506100b26004803603604081101561009c57600080fd5b50600160a060020a03813516906020013561035b565b005b3480156100c057600080fd5b506100c961044a565b60408051600160a060020a039092168252519081900360200190f35b3480156100f157600080fd5b506100b26004803603602081101561010857600080fd5b5035600160a060020a0316610459565b34801561012457600080fd5b506100c961049e565b34801561013957600080fd5b506100b26004803603604081101561015057600080fd5b81019060208101813564010000000081111561016b57600080fd5b82018360208201111561017d57600080fd5b8035906020019184602083028401116401000000008311171561019f57600080fd5b91908080602002602001604051908101604052809392919081815260200183836020028082843760009201919091525092959493602081019350359150506401000000008111156101ef57600080fd5b82018360208201111561020157600080fd5b8035906020019184602083028401116401000000008311171561022357600080fd5b9190808060200260200160405190810160405280939291908181526020018383602002808284376000920191909152509295506104ad945050505050565b34801561026d57600080fd5b506100b26004803603604081101561028457600080fd5b81019060208101813564010000000081111561029f57600080fd5b8201836020820111156102b157600080fd5b803590602001918460208302840111640100000000831117156102d357600080fd5b9190808060200260200160405190810160405280939291908181526020018383602002808284376000920191909152509295505091359250610682915050565b34801561031f57600080fd5b506100b26004803603602081101561033657600080fd5b5035600160a060020a03166107bc565b34801561035257600080fd5b506100c96108fa565b600054600160a060020a031633146103ab576040805160e560020a62461bcd02815260206004820152601b602482015260008051602061090a833981519152604482015290519081900360640190fd5b600154604080517fa9059cbb000000000000000000000000000000000000000000000000000000008152600160a060020a038581166004830152602482018590529151919092169163a9059cbb9160448083019260209291908290030181600087803b15801561041a57600080fd5b505af115801561042e573d6000803e3d6000fd5b505050506040513d602081101561044457600080fd5b50505050565b600154600160a060020a031690565b600054600160a060020a03161561046f57600080fd5b6000805473ffffffffffffffffffffffffffffffffffffffff1916600160a060020a0392909216919091179055565b600054600160a060020a031690565b600054600160a060020a031633146104fd576040805160e560020a62461bcd02815260206004820152601b602482015260008051602061090a833981519152604482015290519081900360640190fd5b805182511461057c576040805160e560020a62461bcd02815260206004820152603360248201527f4164647265737320616e642076616c756520617272617973206d75737420626560448201527f206f66207468652073616d65206c656e67746800000000000000000000000000606482015290519081900360840190fd5b60005b825181101561067d57825160009084908390811061059957fe5b60209081029091010151600160a060020a031614610675576001548351600160a060020a039091169063a9059cbb908590849081106105d457fe5b9060200190602002015184848151811015156105ec57fe5b906020019060200201516040518363ffffffff1660e060020a0281526004018083600160a060020a0316600160a060020a0316815260200182815260200192505050602060405180830381600087803b15801561064857600080fd5b505af115801561065c573d6000803e3d6000fd5b505050506040513d602081101561067257600080fd5b50505b60010161057f565b505050565b600054600160a060020a031633146106d2576040805160e560020a62461bcd02815260206004820152601b602482015260008051602061090a833981519152604482015290519081900360640190fd5b60005b825181101561067d5782516000908490839081106106ef57fe5b60209081029091010151600160a060020a0316146107b4576001548351600160a060020a039091169063a9059cbb9085908490811061072a57fe5b90602001906020020151846040518363ffffffff1660e060020a0281526004018083600160a060020a0316600160a060020a0316815260200182815260200192505050602060405180830381600087803b15801561078757600080fd5b505af115801561079b573d6000803e3d6000fd5b505050506040513d60208110156107b157600080fd5b50505b6001016106d5565b600054600160a060020a0316331461080c576040805160e560020a62461bcd02815260206004820152601b602482015260008051602061090a833981519152604482015290519081900360640190fd5b600160a060020a0381161515610892576040805160e560020a62461bcd02815260206004820152602b60248201527f546865206e6577206f776e6572277320616464726573732063616e6e6f74206260448201527f6520307830302e2e2e3030000000000000000000000000000000000000000000606482015290519081900360840190fd5b60008054604051600160a060020a03808516939216917f8be0079c531659141344cd1fd0a4f28419497f9722a3daafe3b4186f6b6457e091a36000805473ffffffffffffffffffffffffffffffffffffffff1916600160a060020a0392909216919091179055565b600154600160a060020a03168156fe6d73672e73656e646572206973206e6f7420746865206f776e65720000000000a165627a7a72305820ca592b82961988f073bae51c1ca8a80b7b5e6e5e5f4c97fb1ccd6e188c9da5c7002960806040523480156200001157600080fd5b506040516200130738038062001307833981018060405260e08110156200003757600080fd5b81516020830151604084018051929491938201926401000000008111156200005e57600080fd5b820160208101848111156200007257600080fd5b81516401000000008111828201871017156200008d57600080fd5b50509291906020018051640100000000811115620000aa57600080fd5b82016020810184811115620000be57600080fd5b8151640100000000811182820187101715620000d957600080fd5b5050602082810151604084015160609094015160038a90556004805460ff191660ff8b161790558751939650909450916200011b91600591908801906200024b565b508351620001319060069060208701906200024b565b506007805460ff19168415151761ff00191661010084151502179055620001618164010000000062000202810204565b600354600160006200017b6401000000006200023b810204565b600160a060020a03168152602081019190915260400160002055620001a86401000000006200023b810204565b600160a060020a03166000600160a060020a03167fddf252ad1be2c89b69c2b068fc378daa952ba7f163c4a11628f55a4df523b3ef6003546040518082815260200191505060405180910390a350505050505050620002ed565b600054600160a060020a0316156200021957600080fd5b60008054600160a060020a031916600160a060020a0392909216919091179055565b600054600160a060020a03165b90565b828054600181600116156101000203166002900490600052602060002090601f016020900481019282601f106200028e57805160ff1916838001178555620002be565b82800160010185558215620002be579182015b82811115620002be578251825591602001919060010190620002a1565b50620002cc929150620002d0565b5090565b6200024891905b80821115620002cc5760008155600101620002d7565b61100a80620002fd6000396000f3fe6080604052600436106100f05763ffffffff7c010000000000000000000000000000000000000000000000000000000060003504166306fdde0381146100f5578063095ea7b31461017f57806315070401146101cc57806318160ddd146101e157806323b872dd14610208578063313ce5671461024b57806346b45af7146102765780636d1b229d1461028b57806370a08231146102b55780637f12caaa146102e8578063883356d91461031d578063893d20e81461033257806395d89b4114610363578063a9059cbb14610378578063dd62ed3e146103b1578063f0dda65c146103ec578063f2fde38b14610425575b600080fd5b34801561010157600080fd5b5061010a610458565b6040805160208082528351818301528351919283929083019185019080838360005b8381101561014457818101518382015260200161012c565b50505050905090810190601f1680156101715780820380516001836020036101000a031916815260200191505b509250505060405180910390f35b34801561018b57600080fd5b506101b8600480360360408110156101a257600080fd5b50600160a060020a0381351690602001356104e6565b604080519115158252519081900360200190f35b3480156101d857600080fd5b5061010a6104fc565b3480156101ed57600080fd5b506101f6610592565b60408051918252519081900360200190f35b34801561021457600080fd5b506101b86004803603606081101561022b57600080fd5b50600160a060020a03813581169160208101359091169060400135610598565b34801561025757600080fd5b5061026061068e565b6040805160ff9092168252519081900360200190f35b34801561028257600080fd5b506101b8610697565b34801561029757600080fd5b506101b8600480360360208110156102ae57600080fd5b50356106a0565b3480156102c157600080fd5b506101f6600480360360208110156102d857600080fd5b5035600160a060020a031661082b565b3480156102f457600080fd5b5061031b6004803603602081101561030b57600080fd5b5035600160a060020a0316610846565b005b34801561032957600080fd5b506101b861088b565b34801561033e57600080fd5b50610347610899565b60408051600160a060020a039092168252519081900360200190f35b34801561036f57600080fd5b5061010a6108a8565b34801561038457600080fd5b506101b86004803603604081101561039b57600080fd5b50600160a060020a038135169060200135610903565b3480156103bd57600080fd5b506101f6600480360360408110156103d457600080fd5b50600160a060020a0381358116916020013516610910565b3480156103f857600080fd5b506101b86004803603604081101561040f57600080fd5b50600160a060020a03813516906020013561093b565b34801561043157600080fd5b5061031b6004803603602081101561044857600080fd5b5035600160a060020a0316610b1c565b6005805460408051602060026001851615610100026000190190941693909304601f810184900484028201840190925281815292918301828280156104de5780601f106104b3576101008083540402835291602001916104de565b820191906000526020600020905b8154815290600101906020018083116104c157829003601f168201915b505050505081565b60006104f3338484610c6c565b50600192915050565b60068054604080516020601f60026000196101006001881615020190951694909404938401819004810282018101909252828152606093909290918301828280156105885780601f1061055d57610100808354040283529160200191610588565b820191906000526020600020905b81548152906001019060200180831161056b57829003601f168201915b5050505050905090565b60035481565b600160a060020a0383166000908152600260209081526040808320338452909152812054821115610639576040805160e560020a62461bcd02815260206004820152603060248201527f546865207370656e64657220646f6573206e6f7420686176652061207375666660448201527f696369656e7420616c6c6f77616e636500000000000000000000000000000000606482015290519081900360840190fd5b610644848484610dda565b600160a060020a03841660009081526002602090815260408083203380855292529091205461068491869161067f908663ffffffff610fb016565b610c6c565b5060019392505050565b60045460ff1681565b60075460ff1681565b60008054600160a060020a03163314610703576040805160e560020a62461bcd02815260206004820152601b60248201527f6d73672e73656e646572206973206e6f7420746865206f776e65720000000000604482015290519081900360640190fd5b600754610100900460ff161515610764576040805160e560020a62461bcd02815260206004820152601560248201527f546f6b656e206973206e6f74206275726e61626c650000000000000000000000604482015290519081900360640190fd5b600354610777908363ffffffff610fb016565b6003556107b0826001600061078a610899565b600160a060020a031681526020810191909152604001600020549063ffffffff610fb016565b600160006107bc610899565b600160a060020a0316815260208101919091526040016000908120919091556107e3610899565b600160a060020a03167fddf252ad1be2c89b69c2b068fc378daa952ba7f163c4a11628f55a4df523b3ef846040518082815260200191505060405180910390a3506001919050565b600160a060020a031660009081526001602052604090205490565b600054600160a060020a03161561085c57600080fd5b6000805473ffffffffffffffffffffffffffffffffffffffff1916600160a060020a0392909216919091179055565b600754610100900460ff1681565b600054600160a060020a031690565b6006805460408051602060026001851615610100026000190190941693909304601f810184900484028201840190925281815292918301828280156104de5780601f106104b3576101008083540402835291602001916104de565b60006104f3338484610dda565b600160a060020a03918216600090815260026020908152604080832093909416825291909152205490565b60008054600160a060020a0316331461099e576040805160e560020a62461bcd02815260206004820152601b60248201527f6d73672e73656e646572206973206e6f7420746865206f776e65720000000000604482015290519081900360640190fd5b60075460ff1615156109fa576040805160e560020a62461bcd02815260206004820152601560248201527f546f6b656e206973206e6f74206d696e7461626c650000000000000000000000604482015290519081900360640190fd5b600160a060020a0383161515610a80576040805160e560020a62461bcd02815260206004820152602b60248201527f54686520726563697069656e742061646472657373206d757374206e6f74206260448201527f6520307830302e2e2e3030000000000000000000000000000000000000000000606482015290519081900360840190fd5b600354610a93908363ffffffff610fc516565b600355600160a060020a038316600090815260016020526040902054610abf908363ffffffff610fc516565b600160a060020a03841660008181526001602090815260408083209490945583518681529351929391927fddf252ad1be2c89b69c2b068fc378daa952ba7f163c4a11628f55a4df523b3ef9281900390910190a350600192915050565b600054600160a060020a03163314610b7e576040805160e560020a62461bcd02815260206004820152601b60248201527f6d73672e73656e646572206973206e6f7420746865206f776e65720000000000604482015290519081900360640190fd5b600160a060020a0381161515610c04576040805160e560020a62461bcd02815260206004820152602b60248201527f546865206e6577206f776e6572277320616464726573732063616e6e6f74206260448201527f6520307830302e2e2e3030000000000000000000000000000000000000000000606482015290519081900360840190fd5b60008054604051600160a060020a03808516939216917f8be0079c531659141344cd1fd0a4f28419497f9722a3daafe3b4186f6b6457e091a36000805473ffffffffffffffffffffffffffffffffffffffff1916600160a060020a0392909216919091179055565b600160a060020a0382161515610cf2576040805160e560020a62461bcd02815260206004820152602960248201527f546865207370656e6465722061646472657373206d757374206e6f742062652060448201527f307830302e2e2e30300000000000000000000000000000000000000000000000606482015290519081900360840190fd5b600160a060020a0383161515610d78576040805160e560020a62461bcd02815260206004820152602660248201527f546865206f776e65722061646472657373206d757374206e6f7420626520307860448201527f30302e2e30300000000000000000000000000000000000000000000000000000606482015290519081900360840190fd5b600160a060020a03808416600081815260026020908152604080832094871680845294825291829020859055815185815291517f8c5be1e5ebec7d5bd14f71427d1e84f3dd0314c0f7b2291e5b200ac8c7c3b9259281900390910190a3505050565b600160a060020a038316600090815260016020526040902054811115610e70576040805160e560020a62461bcd02815260206004820152602860248201527f46726f6d206164647265737320646f6573206e6f74206861766520656e6f756760448201527f6820746f6b656e73000000000000000000000000000000000000000000000000606482015290519081900360840190fd5b600160a060020a0382161515610ef6576040805160e560020a62461bcd02815260206004820152602b60248201527f54686520726563697069656e742061646472657373206d757374206e6f74206260448201527f6520307830302e2e2e3030000000000000000000000000000000000000000000606482015290519081900360840190fd5b600160a060020a038316600090815260016020526040902054610f1f908263ffffffff610fb016565b600160a060020a038085166000908152600160205260408082209390935590841681522054610f54908263ffffffff610fc516565b600160a060020a0380841660008181526001602090815260409182902094909455805185815290519193928716927fddf252ad1be2c89b69c2b068fc378daa952ba7f163c4a11628f55a4df523b3ef92918290030190a3505050565b600082821115610fbf57600080fd5b50900390565b600082820183811015610fd757600080fd5b939250505056fea165627a7a723058206fb32d60fe593527bafa3527797f601bdf3f29590203f387db184c81894219f80029a165627a7a72305820f450e00c808c346606f32c47a37fe2714aad485cdd2777e87509040d2bd6adf00029",
  "source": "pragma solidity ^0.5.0;\n\nimport \"./ICOTemplate.sol\";\nimport \"./ERC20Template.sol\";\nimport \"./AirdropTemplate.sol\";\n\ncontract ContractFactory {\n    \n    /**\n    * Event is broadcast to the Ethereum blockchain to signify that\n    * a new ERC20 token has been deployed from the ContractFactory\n    * */\n    event TokenDeployed (\n        address indexed by,\n        address indexed addressOfToken,\n        string symbolOfToken\n    );\n    \n    \n    /**\n    * Event is broadcast to the Ethereum blockchain to signify that\n    * a new Airdrop contract has been deployed from the ContractFactory\n    * */\n    event AirdropDeployed (\n        address indexed by,\n        address indexed addressOfAirdrop,\n        string symbolOfToken\n    );\n    \n    \n    /**\n    * Event is broadcast to the Ethereum blockchain to signify that\n    * a new ICO contract has been deployed from the ContractFactory\n    * */\n    event ICODeployed (\n        address indexed by,\n        address indexed addressOfICO,\n        string symbolOfToken\n    );\n    \n    \n\n    /**\n    * Allows users to deploy an ERC20 token without any minting or burning functionality. \n    **/\n    function deploySimpleToken(uint _totalSupply, uint8 _decimals, string memory _name, string memory _symbol) public {\n        _deployToken(_totalSupply, _decimals, _name, _symbol, false, false);\n    }\n\n\n    /**\n    * Allows users to deploy an ERC20 token which does have minting functionality but \n    * no burning functionality. \n    **/\n    function deployMintableToken(uint _totalSupply, uint8 _decimals, string memory _name, string memory _symbol) public {\n        _deployToken(_totalSupply, _decimals, _name, _symbol, true, false);\n    }\n    \n    \n    /**\n    * Allows users to deploy an ERC20 token which does have burning functionality but\n    * no minting functionality.\n    **/\n    function deployBurnableToken(uint _totalSupply, uint8 _decimals, string memory _name, string memory _symbol) public {\n        _deployToken(_totalSupply, _decimals, _name, _symbol, false, true);\n    }\n    \n    \n    /**\n    * Allows users to deploy an ERC20 token which has both the minting and burning \n    * functionalities. \n    **/\n    function deployMintableBurnableToken(uint _totalSupply, uint8 _decimals, string memory _name, string memory _symbol) public {\n        _deployToken(_totalSupply, _decimals, _name, _symbol, true, true);\n    }\n    \n    \n    /**\n    * This funciton is invoked internally by the 4 token deployment functions above. \n    *\n    * @param _totalSupply - The total amount of tokens to be created.\n    * @param _decimals - The number of decimals the token will have. \n    * @param _name - The name of the token.\n    * @param _symbol - The ticker of the token.\n    * @param _isMintable - Boolean value to make token mintable or not.\n    * @param _isBurnable - Boolean value to make token burnable or not. \n    **/\n    function _deployToken(\n        uint _totalSupply, uint8 _decimals, string memory _name, string memory _symbol,bool _isMintable, bool _isBurnable) internal  {\n        ERC20Template token = new ERC20Template(_totalSupply, _decimals, _name, _symbol, _isMintable, _isBurnable, msg.sender);\n        //Broadcast the token deployment event to the Ethereum network.\n        emit TokenDeployed(\n            msg.sender, \n            address(token),\n            _symbol\n        );\n    }\n    \n    \n    /**\n    * Allows users to deploy an airdrop contract for an ERC20 token. \n    *\n    * @param _tokenAddress - The contract address of the ERC20 token. \n    **/\n    function deployAirdropContract(address _tokenAddress) public {\n        AirdropTemplate airdrop = new AirdropTemplate(_tokenAddress, msg.sender);\n        //Broadcast the airdrop contract deployment event to the Ethereum network. \n        emit AirdropDeployed(\n            msg.sender,\n            address(airdrop),\n            ERC20Template(_tokenAddress).getSymbol()\n        );\n    }\n    \n    \n    /**\n    * Allows users to deploy an ICO contract for an ERC20 token.\n    *\n    * @param _tokenAddress - The contract address of the ERC20 token. \n    * @param _tokenDecimals - The amount of decimals the token has. \n    * @param _ethSoftCap - The minimum amount of ETH that needs to be raised.\n    * @param _rate - The ETH exchange rate at which the token will be sold (i.e., 1 ETH = 100 tokens)\n    **/\n    function deployICOContract(address _tokenAddress, uint _tokenDecimals, uint _ethSoftCap, uint _rate, uint _durationInDays) public {\n        ICOTemplate ICO = new ICOTemplate(_tokenAddress,_tokenDecimals,_ethSoftCap,_rate,_durationInDays,msg.sender);\n        //Broadcast the ICO contract deployment event to the Ethereum network. \n        emit ICODeployed (\n            msg.sender,\n            address(ICO),\n            ERC20Template(_tokenAddress).getSymbol()\n        );\n    }\n}\n",
  "sourcePath": "/home/zenos/university/final_year_project/project_code/smart_contracts/contracts/ContractFactory.sol",
  "compiler": {
    "name": "solc",
    "version": "0.5.0+commit.1d4f565a.Emscripten.clang"
  },
  "schemaVersion": "3.0.6",
  "updatedAt": "2019-04-20T14:10:42.563Z",
  "devdoc": {
    "methods": {
      "deployAirdropContract(address)": {
        "params": {
          "_tokenAddress": "- The contract address of the ERC20 token. *"
        }
      },
      "deployICOContract(address,uint256,uint256,uint256,uint256)": {
        "params": {
          "_ethSoftCap": "- The minimum amount of ETH that needs to be raised.",
          "_rate": "- The ETH exchange rate at which the token will be sold (i.e., 1 ETH = 100 tokens)*",
          "_tokenAddress": "- The contract address of the ERC20 token. ",
          "_tokenDecimals": "- The amount of decimals the token has. "
        }
      }
    }
  },
  "userdoc": {
    "methods": {
      "deployAirdropContract(address)": {
        "notice": "Allows users to deploy an airdrop contract for an ERC20 token. "
      },
      "deployBurnableToken(uint256,uint8,string,string)": {
        "notice": "Allows users to deploy an ERC20 token which does have burning functionality but no minting functionality.*"
      },
      "deployICOContract(address,uint256,uint256,uint256,uint256)": {
        "notice": "Allows users to deploy an ICO contract for an ERC20 token."
      },
      "deployMintableBurnableToken(uint256,uint8,string,string)": {
        "notice": "Allows users to deploy an ERC20 token which has both the minting and burning  functionalities. *"
      },
      "deployMintableToken(uint256,uint8,string,string)": {
        "notice": "Allows users to deploy an ERC20 token which does have minting functionality but  no burning functionality. *"
      },
      "deploySimpleToken(uint256,uint8,string,string)": {
        "notice": "Allows users to deploy an ERC20 token without any minting or burning functionality. *"
      }
    }
  }
}