{
  "contractName": "ERC20Template",
  "abi": [
    {
      "constant": true,
      "inputs": [],
      "name": "name",
      "outputs": [
        {
          "name": "",
          "type": "string"
        }
      ],
      "payable": false,
      "stateMutability": "view",
      "type": "function",
      "signature": "0x06fdde03"
    },
    {
      "constant": true,
      "inputs": [],
      "name": "totalSupply",
      "outputs": [
        {
          "name": "",
          "type": "uint256"
        }
      ],
      "payable": false,
      "stateMutability": "view",
      "type": "function",
      "signature": "0x18160ddd"
    },
    {
      "constant": true,
      "inputs": [],
      "name": "decimals",
      "outputs": [
        {
          "name": "",
          "type": "uint8"
        }
      ],
      "payable": false,
      "stateMutability": "view",
      "type": "function",
      "signature": "0x313ce567"
    },
    {
      "constant": true,
      "inputs": [],
      "name": "isMintable",
      "outputs": [
        {
          "name": "",
          "type": "bool"
        }
      ],
      "payable": false,
      "stateMutability": "view",
      "type": "function",
      "signature": "0x46b45af7"
    },
    {
      "constant": false,
      "inputs": [
        {
          "name": "_owner",
          "type": "address"
        }
      ],
      "name": "assignOwner",
      "outputs": [],
      "payable": false,
      "stateMutability": "nonpayable",
      "type": "function",
      "signature": "0x7f12caaa"
    },
    {
      "constant": true,
      "inputs": [],
      "name": "isBurnable",
      "outputs": [
        {
          "name": "",
          "type": "bool"
        }
      ],
      "payable": false,
      "stateMutability": "view",
      "type": "function",
      "signature": "0x883356d9"
    },
    {
      "constant": true,
      "inputs": [],
      "name": "getOwner",
      "outputs": [
        {
          "name": "",
          "type": "address"
        }
      ],
      "payable": false,
      "stateMutability": "view",
      "type": "function",
      "signature": "0x893d20e8"
    },
    {
      "constant": true,
      "inputs": [],
      "name": "symbol",
      "outputs": [
        {
          "name": "",
          "type": "string"
        }
      ],
      "payable": false,
      "stateMutability": "view",
      "type": "function",
      "signature": "0x95d89b41"
    },
    {
      "constant": false,
      "inputs": [
        {
          "name": "_newOwner",
          "type": "address"
        }
      ],
      "name": "transferOwnership",
      "outputs": [],
      "payable": false,
      "stateMutability": "nonpayable",
      "type": "function",
      "signature": "0xf2fde38b"
    },
    {
      "inputs": [
        {
          "name": "_totalSupply",
          "type": "uint256"
        },
        {
          "name": "_decimals",
          "type": "uint8"
        },
        {
          "name": "_name",
          "type": "string"
        },
        {
          "name": "_symbol",
          "type": "string"
        },
        {
          "name": "_isMintable",
          "type": "bool"
        },
        {
          "name": "_isBurnable",
          "type": "bool"
        },
        {
          "name": "_owner",
          "type": "address"
        }
      ],
      "payable": false,
      "stateMutability": "nonpayable",
      "type": "constructor",
      "signature": "constructor"
    },
    {
      "anonymous": false,
      "inputs": [
        {
          "indexed": true,
          "name": "owner",
          "type": "address"
        },
        {
          "indexed": true,
          "name": "spender",
          "type": "address"
        },
        {
          "indexed": false,
          "name": "value",
          "type": "uint256"
        }
      ],
      "name": "Approval",
      "type": "event",
      "signature": "0x8c5be1e5ebec7d5bd14f71427d1e84f3dd0314c0f7b2291e5b200ac8c7c3b925"
    },
    {
      "anonymous": false,
      "inputs": [
        {
          "indexed": true,
          "name": "from",
          "type": "address"
        },
        {
          "indexed": true,
          "name": "to",
          "type": "address"
        },
        {
          "indexed": false,
          "name": "value",
          "type": "uint256"
        }
      ],
      "name": "Transfer",
      "type": "event",
      "signature": "0xddf252ad1be2c89b69c2b068fc378daa952ba7f163c4a11628f55a4df523b3ef"
    },
    {
      "anonymous": false,
      "inputs": [
        {
          "indexed": true,
          "name": "from",
          "type": "address"
        },
        {
          "indexed": true,
          "name": "to",
          "type": "address"
        }
      ],
      "name": "OwnershipTransferred",
      "type": "event",
      "signature": "0x8be0079c531659141344cd1fd0a4f28419497f9722a3daafe3b4186f6b6457e0"
    },
    {
      "constant": true,
      "inputs": [
        {
          "name": "_addr",
          "type": "address"
        }
      ],
      "name": "balanceOf",
      "outputs": [
        {
          "name": "",
          "type": "uint256"
        }
      ],
      "payable": false,
      "stateMutability": "view",
      "type": "function",
      "signature": "0x70a08231"
    },
    {
      "constant": true,
      "inputs": [
        {
          "name": "_owner",
          "type": "address"
        },
        {
          "name": "_spender",
          "type": "address"
        }
      ],
      "name": "allowance",
      "outputs": [
        {
          "name": "",
          "type": "uint256"
        }
      ],
      "payable": false,
      "stateMutability": "view",
      "type": "function",
      "signature": "0xdd62ed3e"
    },
    {
      "constant": true,
      "inputs": [],
      "name": "getSymbol",
      "outputs": [
        {
          "name": "",
          "type": "string"
        }
      ],
      "payable": false,
      "stateMutability": "view",
      "type": "function",
      "signature": "0x15070401"
    },
    {
      "constant": false,
      "inputs": [
        {
          "name": "_to",
          "type": "address"
        },
        {
          "name": "_value",
          "type": "uint256"
        }
      ],
      "name": "transfer",
      "outputs": [
        {
          "name": "",
          "type": "bool"
        }
      ],
      "payable": false,
      "stateMutability": "nonpayable",
      "type": "function",
      "signature": "0xa9059cbb"
    },
    {
      "constant": false,
      "inputs": [
        {
          "name": "_spender",
          "type": "address"
        },
        {
          "name": "_value",
          "type": "uint256"
        }
      ],
      "name": "approve",
      "outputs": [
        {
          "name": "",
          "type": "bool"
        }
      ],
      "payable": false,
      "stateMutability": "nonpayable",
      "type": "function",
      "signature": "0x095ea7b3"
    },
    {
      "constant": false,
      "inputs": [
        {
          "name": "_from",
          "type": "address"
        },
        {
          "name": "_to",
          "type": "address"
        },
        {
          "name": "_value",
          "type": "uint256"
        }
      ],
      "name": "transferFrom",
      "outputs": [
        {
          "name": "",
          "type": "bool"
        }
      ],
      "payable": false,
      "stateMutability": "nonpayable",
      "type": "function",
      "signature": "0x23b872dd"
    },
    {
      "constant": false,
      "inputs": [
        {
          "name": "_value",
          "type": "uint256"
        }
      ],
      "name": "burnTokens",
      "outputs": [
        {
          "name": "",
          "type": "bool"
        }
      ],
      "payable": false,
      "stateMutability": "nonpayable",
      "type": "function",
      "signature": "0x6d1b229d"
    },
    {
      "constant": false,
      "inputs": [
        {
          "name": "_to",
          "type": "address"
        },
        {
          "name": "_value",
          "type": "uint256"
        }
      ],
      "name": "mintTokens",
      "outputs": [
        {
          "name": "",
          "type": "bool"
        }
      ],
      "payable": false,
      "stateMutability": "nonpayable",
      "type": "function",
      "signature": "0xf0dda65c"
    }
  ],
  "bytecode": "0x60806040523480156200001157600080fd5b506040516200130738038062001307833981018060405260e08110156200003757600080fd5b81516020830151604084018051929491938201926401000000008111156200005e57600080fd5b820160208101848111156200007257600080fd5b81516401000000008111828201871017156200008d57600080fd5b50509291906020018051640100000000811115620000aa57600080fd5b82016020810184811115620000be57600080fd5b8151640100000000811182820187101715620000d957600080fd5b5050602082810151604084015160609094015160038a90556004805460ff191660ff8b161790558751939650909450916200011b91600591908801906200024b565b508351620001319060069060208701906200024b565b506007805460ff19168415151761ff00191661010084151502179055620001618164010000000062000202810204565b600354600160006200017b6401000000006200023b810204565b600160a060020a03168152602081019190915260400160002055620001a86401000000006200023b810204565b600160a060020a03166000600160a060020a03167fddf252ad1be2c89b69c2b068fc378daa952ba7f163c4a11628f55a4df523b3ef6003546040518082815260200191505060405180910390a350505050505050620002ed565b600054600160a060020a0316156200021957600080fd5b60008054600160a060020a031916600160a060020a0392909216919091179055565b600054600160a060020a03165b90565b828054600181600116156101000203166002900490600052602060002090601f016020900481019282601f106200028e57805160ff1916838001178555620002be565b82800160010185558215620002be579182015b82811115620002be578251825591602001919060010190620002a1565b50620002cc929150620002d0565b5090565b6200024891905b80821115620002cc5760008155600101620002d7565b61100a80620002fd6000396000f3fe6080604052600436106100f05763ffffffff7c010000000000000000000000000000000000000000000000000000000060003504166306fdde0381146100f5578063095ea7b31461017f57806315070401146101cc57806318160ddd146101e157806323b872dd14610208578063313ce5671461024b57806346b45af7146102765780636d1b229d1461028b57806370a08231146102b55780637f12caaa146102e8578063883356d91461031d578063893d20e81461033257806395d89b4114610363578063a9059cbb14610378578063dd62ed3e146103b1578063f0dda65c146103ec578063f2fde38b14610425575b600080fd5b34801561010157600080fd5b5061010a610458565b6040805160208082528351818301528351919283929083019185019080838360005b8381101561014457818101518382015260200161012c565b50505050905090810190601f1680156101715780820380516001836020036101000a031916815260200191505b509250505060405180910390f35b34801561018b57600080fd5b506101b8600480360360408110156101a257600080fd5b50600160a060020a0381351690602001356104e6565b604080519115158252519081900360200190f35b3480156101d857600080fd5b5061010a6104fc565b3480156101ed57600080fd5b506101f6610592565b60408051918252519081900360200190f35b34801561021457600080fd5b506101b86004803603606081101561022b57600080fd5b50600160a060020a03813581169160208101359091169060400135610598565b34801561025757600080fd5b5061026061068e565b6040805160ff9092168252519081900360200190f35b34801561028257600080fd5b506101b8610697565b34801561029757600080fd5b506101b8600480360360208110156102ae57600080fd5b50356106a0565b3480156102c157600080fd5b506101f6600480360360208110156102d857600080fd5b5035600160a060020a031661082b565b3480156102f457600080fd5b5061031b6004803603602081101561030b57600080fd5b5035600160a060020a0316610846565b005b34801561032957600080fd5b506101b861088b565b34801561033e57600080fd5b50610347610899565b60408051600160a060020a039092168252519081900360200190f35b34801561036f57600080fd5b5061010a6108a8565b34801561038457600080fd5b506101b86004803603604081101561039b57600080fd5b50600160a060020a038135169060200135610903565b3480156103bd57600080fd5b506101f6600480360360408110156103d457600080fd5b50600160a060020a0381358116916020013516610910565b3480156103f857600080fd5b506101b86004803603604081101561040f57600080fd5b50600160a060020a03813516906020013561093b565b34801561043157600080fd5b5061031b6004803603602081101561044857600080fd5b5035600160a060020a0316610b1c565b6005805460408051602060026001851615610100026000190190941693909304601f810184900484028201840190925281815292918301828280156104de5780601f106104b3576101008083540402835291602001916104de565b820191906000526020600020905b8154815290600101906020018083116104c157829003601f168201915b505050505081565b60006104f3338484610c6c565b50600192915050565b60068054604080516020601f60026000196101006001881615020190951694909404938401819004810282018101909252828152606093909290918301828280156105885780601f1061055d57610100808354040283529160200191610588565b820191906000526020600020905b81548152906001019060200180831161056b57829003601f168201915b5050505050905090565b60035481565b600160a060020a0383166000908152600260209081526040808320338452909152812054821115610639576040805160e560020a62461bcd02815260206004820152603060248201527f546865207370656e64657220646f6573206e6f7420686176652061207375666660448201527f696369656e7420616c6c6f77616e636500000000000000000000000000000000606482015290519081900360840190fd5b610644848484610dda565b600160a060020a03841660009081526002602090815260408083203380855292529091205461068491869161067f908663ffffffff610fb016565b610c6c565b5060019392505050565b60045460ff1681565b60075460ff1681565b60008054600160a060020a03163314610703576040805160e560020a62461bcd02815260206004820152601b60248201527f6d73672e73656e646572206973206e6f7420746865206f776e65720000000000604482015290519081900360640190fd5b600754610100900460ff161515610764576040805160e560020a62461bcd02815260206004820152601560248201527f546f6b656e206973206e6f74206275726e61626c650000000000000000000000604482015290519081900360640190fd5b600354610777908363ffffffff610fb016565b6003556107b0826001600061078a610899565b600160a060020a031681526020810191909152604001600020549063ffffffff610fb016565b600160006107bc610899565b600160a060020a0316815260208101919091526040016000908120919091556107e3610899565b600160a060020a03167fddf252ad1be2c89b69c2b068fc378daa952ba7f163c4a11628f55a4df523b3ef846040518082815260200191505060405180910390a3506001919050565b600160a060020a031660009081526001602052604090205490565b600054600160a060020a03161561085c57600080fd5b6000805473ffffffffffffffffffffffffffffffffffffffff1916600160a060020a0392909216919091179055565b600754610100900460ff1681565b600054600160a060020a031690565b6006805460408051602060026001851615610100026000190190941693909304601f810184900484028201840190925281815292918301828280156104de5780601f106104b3576101008083540402835291602001916104de565b60006104f3338484610dda565b600160a060020a03918216600090815260026020908152604080832093909416825291909152205490565b60008054600160a060020a0316331461099e576040805160e560020a62461bcd02815260206004820152601b60248201527f6d73672e73656e646572206973206e6f7420746865206f776e65720000000000604482015290519081900360640190fd5b60075460ff1615156109fa576040805160e560020a62461bcd02815260206004820152601560248201527f546f6b656e206973206e6f74206d696e7461626c650000000000000000000000604482015290519081900360640190fd5b600160a060020a0383161515610a80576040805160e560020a62461bcd02815260206004820152602b60248201527f54686520726563697069656e742061646472657373206d757374206e6f74206260448201527f6520307830302e2e2e3030000000000000000000000000000000000000000000606482015290519081900360840190fd5b600354610a93908363ffffffff610fc516565b600355600160a060020a038316600090815260016020526040902054610abf908363ffffffff610fc516565b600160a060020a03841660008181526001602090815260408083209490945583518681529351929391927fddf252ad1be2c89b69c2b068fc378daa952ba7f163c4a11628f55a4df523b3ef9281900390910190a350600192915050565b600054600160a060020a03163314610b7e576040805160e560020a62461bcd02815260206004820152601b60248201527f6d73672e73656e646572206973206e6f7420746865206f776e65720000000000604482015290519081900360640190fd5b600160a060020a0381161515610c04576040805160e560020a62461bcd02815260206004820152602b60248201527f546865206e6577206f776e6572277320616464726573732063616e6e6f74206260448201527f6520307830302e2e2e3030000000000000000000000000000000000000000000606482015290519081900360840190fd5b60008054604051600160a060020a03808516939216917f8be0079c531659141344cd1fd0a4f28419497f9722a3daafe3b4186f6b6457e091a36000805473ffffffffffffffffffffffffffffffffffffffff1916600160a060020a0392909216919091179055565b600160a060020a0382161515610cf2576040805160e560020a62461bcd02815260206004820152602960248201527f546865207370656e6465722061646472657373206d757374206e6f742062652060448201527f307830302e2e2e30300000000000000000000000000000000000000000000000606482015290519081900360840190fd5b600160a060020a0383161515610d78576040805160e560020a62461bcd02815260206004820152602660248201527f546865206f776e65722061646472657373206d757374206e6f7420626520307860448201527f30302e2e30300000000000000000000000000000000000000000000000000000606482015290519081900360840190fd5b600160a060020a03808416600081815260026020908152604080832094871680845294825291829020859055815185815291517f8c5be1e5ebec7d5bd14f71427d1e84f3dd0314c0f7b2291e5b200ac8c7c3b9259281900390910190a3505050565b600160a060020a038316600090815260016020526040902054811115610e70576040805160e560020a62461bcd02815260206004820152602860248201527f46726f6d206164647265737320646f6573206e6f74206861766520656e6f756760448201527f6820746f6b656e73000000000000000000000000000000000000000000000000606482015290519081900360840190fd5b600160a060020a0382161515610ef6576040805160e560020a62461bcd02815260206004820152602b60248201527f54686520726563697069656e742061646472657373206d757374206e6f74206260448201527f6520307830302e2e2e3030000000000000000000000000000000000000000000606482015290519081900360840190fd5b600160a060020a038316600090815260016020526040902054610f1f908263ffffffff610fb016565b600160a060020a038085166000908152600160205260408082209390935590841681522054610f54908263ffffffff610fc516565b600160a060020a0380841660008181526001602090815260409182902094909455805185815290519193928716927fddf252ad1be2c89b69c2b068fc378daa952ba7f163c4a11628f55a4df523b3ef92918290030190a3505050565b600082821115610fbf57600080fd5b50900390565b600082820183811015610fd757600080fd5b939250505056fea165627a7a723058206fb32d60fe593527bafa3527797f601bdf3f29590203f387db184c81894219f80029",
  "source": "pragma solidity ^0.5.0;\n\nimport \"./SafeMath.sol\";\nimport \"./InterfaceERC20.sol\";\nimport \"./Owned.sol\";\n\ncontract ERC20Template is InterfaceERC20, Owned {\n    \n    //Use the SafeMath library functions on the uint256 data type.\n    using SafeMath for uint;\n    \n    /**\n    * This mapping will hold a record of user balances by using the user's address \n    * as the key which maps to an unsigned integer representing the balance.  \n    * */\n    mapping (address => uint) private balances;\n    \n    /**\n    * This mapping will hold a recored of allowances made (i.e., address A has allowed \n    * address B to spend up to X amount of tokens from address A's wallet). In this\n    * mapping there are two keys, A & B which would yield the following [A][B] -> X\n    * where X is an unsigned integer value representing the allowance from address A to B. \n    **/\n    mapping (address => mapping (address => uint)) allowances;\n    \n    //This is the total amount of tokens.\n    uint public totalSupply;\n    //This represents how many decimals the token will have (18 is the standard).\n    uint8 public decimals;\n    //This is where the name of the token will be stored.\n    string public name;\n    //This is where the ticker of the token will be stored. \n    string public symbol;\n    //The below variables will be used for determining if a token will be \n    //mintable, burnable, or both. \n    bool public isMintable;\n    bool public isBurnable;\n    \n    /**\n     * Initializes the state variables of the token contract, assigns the owner to be \n     * the address from which the transaction originated and also sends all tokens to \n     * the owner.\n     * \n     * @param _totalSupply - The total amount of tokens. \n     * @param _decimals - The number of decimals of the token.\n     * @param _name - The name of the token.\n     * @param _symbol - The ticker of the token.\n     * */\n    constructor(uint _totalSupply, uint8 _decimals, string memory _name, string memory _symbol, bool _isMintable, bool _isBurnable, address _owner) public {\n        totalSupply = _totalSupply;\n        decimals = _decimals;\n        name = _name;\n        symbol = _symbol;\n        isMintable = _isMintable;\n        isBurnable = _isBurnable;\n        //Pass the owner's address (i.e., the one who is creating the ERC20 contract) to\n        //the Owned.sol smart contract. This is done because only the owner will be allowed\n        //to invoke certain functions (look at the onlyOwner modifier in the Owned.sol contract)\n        assignOwner(_owner);\n        //Send the entire total supply of tokens to the owner. \n        balances[getOwner()] = totalSupply;\n        //Broadcast the token transfer event to the Ethereum network \n        //(because the owner has been given all the tokens). \n        emit Transfer(\n            address(0x0),\n            getOwner(),\n            totalSupply\n        );\n    }\n    \n    \n    /**\n    * Event is broadcast to the Ethereum blockchain to signify \n    * that an approval has been made.\n    * */\n    event Approval(\n        address indexed owner, \n        address indexed spender, \n        uint value\n    );\n    \n    \n    /**\n    * Event is broadcast to the Ethereum blockchain to signify \n    * that a transfer of tokens has take place.\n    * */\n    event Transfer(\n        address indexed from, \n        address indexed to, \n        uint value\n    );\n\n    \n    /**\n    * Allows anyone to query the balance of a given address.\n    * \n    * @param _addr - The address of which the balance is being queried.\n    * \n    * @return The balance of the address.\n    * */\n    function balanceOf(address _addr) external view returns (uint) {\n        return balances[_addr];\n    }\n    \n    \n    /**\n    * Allows anyone to query the token contract to see how many tokens an owner \n    * of tokens has allowed a spender to spend from the owner's balance. \n    * \n    * @param _owner - The address which the tokens reside in. \n    * @param _spender - The address of the spender. \n    * \n    * @return The total amount of tokens the spender is allowed to spend from\n    * the owner's tokens.\n    * */\n    function allowance(address _owner, address _spender) external view returns (uint) {\n        return allowances[_owner][_spender];\n    }\n\n    \n    \n    function getSymbol() public view returns(string memory) {\n        return symbol;\n    }\n    \n    \n    /**\n    * Invoked internally by the transfer & transferFrom function to avoid \n    * duplication of code. \n    * \n    * @param _from - The address the tokens will leave from. \n    * @param _to - The recipient of the tokens. \n    * @param _value - The total amount of tokens which will be sent. \n    * */\n    function internalTranfer(address _from, address _to, uint _value) internal {\n        //Check that the person invoking the function has enough tokens to transfer.\n        require(balances[_from] >= _value, \"From address does not have enough tokens\");\n        //Check that the address is not 0x00.....00\n        require(_to != address(0x0), \"The recipient address must not be 0x00...00\");\n        //Subtract tokens from the person's ETH address.\n        balances[_from] = balances[_from].sub(_value);\n        //Add tokens to the recipient's ETH address.\n        balances[_to] = balances[_to].add(_value); \n        //Broadcast the token transfer event to the Ethereum network \n        emit Transfer(\n            _from,\n            _to,\n            _value\n        );\n    }\n\n\n    /**\n    * Allows token holders to tranfer their tokens to other ETH addresses. \n    * \n    * @param _to - The recipient address which will receive the tokens.\n    * @param _value - The total amount of tokens which will be sent.\n    * \n    * @return True if the function executes successfully, false otherwise. \n    * */\n    function transfer(address _to, uint _value) external returns (bool) {\n        internalTranfer(msg.sender, _to, _value);\n        return true;\n    }\n\n    \n\n\n\n\n\n\n\n\n\n    \n    /**\n    * Invoked internally by the approve and transferFrom function. \n    * \n    * @param _owner - The address of the owner of the tokens.\n    * @param _spender - The address of the spender of the tokens. \n    * */\n    function internalApprove(address _owner, address _spender, uint _value) internal {\n        //Check that _owner & _spender is not 0x00.....00\n        require(_spender != address(0x0), \"The spender address must not be 0x00...00\");\n        require(_owner != address(0x0), \"The owner address must not be 0x00..00\");\n        //Assign the new allowance value to the allowances mapping\n        //from owner to spender\n        allowances[_owner][_spender] = _value;\n        //Broadcast the token approval event to the Ethereum network \n        emit Approval(\n            _owner, \n            _spender, \n            _value\n        );\n    }    \n    \n    \n    /**\n    * Allows an owner of tokens to approve some spender to spend up \n    * to a specified amount of tokens from the owner's wallet address. \n    * \n    * @param _spender - The address of the spender who will be allowed to \n    * spend tokens from the owner's wallet address. \n    * @param _value - The total amount of tokens the owner will allow the \n    * spender to spend.\n    * \n    * @return True if the function executes successfully, false otherwise.  \n    * */\n    function approve(address _spender, uint _value) external returns(bool) {\n        internalApprove(msg.sender, _spender, _value);\n        return true;\n    }\n    \n    \n    /**\n    * Allows a spender who has been approved by an owner of the token to \n    * spend tokens from the owner's wallet address. \n    * \n    * @param _from - The wallet address of the owner. \n    * @param _value - The total amount of tokens to transfer. \n    * \n    * @return True if the function executes successfully, false otherwise. \n    * */\n    function transferFrom(address _from, address _to, uint _value) external returns (bool) {\n        //Check that the spender has a high enough allowance from the owner.\n        require(allowances[_from][msg.sender] >= _value, \"The spender does not have a sufficient allowance\");\n        //Invoke the internal transfer function to move the tokens from the \n        //owner's wallet address to the recipients wallet address. \n        internalTranfer(_from, _to, _value);\n        //Invoke the internal approval function to update the allowance \n        //of the owner to the spender. \n        internalApprove(_from, msg.sender, allowances[_from][msg.sender].sub(_value));\n        return true;\n    }\n    \n    \n    /**\n    * Allows the owner of the contract to burn tokens from the total supply \n    * if and only if the token was declared as a burnable one in the constructor\n    * of the contract. \n    * \n    * @param _value - The total amount of tokens to burn. \n    * \n    * @return True if the function executes successfully, false otherwise. \n    **/\n    function burnTokens(uint _value) public onlyOwner returns(bool){\n        //Check that the token was declared as a burnable one upon \n        //initialization in the constructor.\n        require(isBurnable, \"Token is not burnable\");\n        //Decrement the total supply.\n        totalSupply = totalSupply.sub(_value);\n        //Remove the tokens from the owner's balance.\n        balances[getOwner()] = balances[getOwner()].sub(_value);\n        //Broadcast the token burn event to the Ethereum network as \n        //a transfer from the owners address to the 0x00...00 address. \n        emit Transfer(getOwner(), address(0x0), _value);\n        return true;\n    }\n    \n    \n    /**\n     * ALlows the owner of the contract to mint new tokens to any wallet \n     * address if and only if the token was declared as a mintable one in \n     * the constructor of the contract. \n     * \n     * @param _to - The address of the recipient.\n     * \n     * @return True if the function executes successfully, false otherwise. \n     * */\n    function mintTokens(address _to, uint _value) public onlyOwner returns(bool) {\n        //Check that the token was declared as a mintable one upon \n        //initialization in the constructor. \n        require(isMintable, \"Token is not mintable\");\n        //Check that the _to address is not of the form 0x00...00.\n        require(_to != address(0x0), \"The recipient address must not be 0x00...00\");\n        //Add the tokens to the total supply.\n        totalSupply = totalSupply.add(_value);\n        //Add the tokens to the _to address's balance.\n        balances[_to] = balances[_to].add(_value);\n        //Broadcast the token minting event to the Ethereum network as \n        //a transfer from the 0x00...00 address to the _to address. \n        emit Transfer(address(0x0), _to, _value);\n        return true;\n    }\n}\n",
  "sourcePath": "/home/zenos/university/final_year_project/project_code/smart_contracts/contracts/ERC20Template.sol",
  "compiler": {
    "name": "solc",
    "version": "0.5.0+commit.1d4f565a.Emscripten.clang"
  },
  "schemaVersion": "3.0.6",
  "updatedAt": "2019-04-20T14:10:43.057Z",
  "devdoc": {
    "methods": {
      "allowance(address,address)": {
        "params": {
          "_owner": "- The address which the tokens reside in. ",
          "_spender": "- The address of the spender.  "
        },
        "return": "The total amount of tokens the spender is allowed to spend from the owner's tokens."
      },
      "approve(address,uint256)": {
        "params": {
          "_spender": "- The address of the spender who will be allowed to  spend tokens from the owner's wallet address. ",
          "_value": "- The total amount of tokens the owner will allow the  spender to spend. "
        },
        "return": "True if the function executes successfully, false otherwise.  "
      },
      "balanceOf(address)": {
        "params": {
          "_addr": "- The address of which the balance is being queried. "
        },
        "return": "The balance of the address."
      },
      "burnTokens(uint256)": {
        "params": {
          "_value": "- The total amount of tokens to burn.  "
        },
        "return": "True if the function executes successfully, false otherwise. *"
      },
      "constructor": {
        "params": {
          "_decimals": "- The number of decimals of the token.",
          "_name": "- The name of the token.",
          "_symbol": "- The ticker of the token.",
          "_totalSupply": "- The total amount of tokens. "
        }
      },
      "getOwner()": {
        "return": "The address of the owner."
      },
      "mintTokens(address,uint256)": {
        "params": {
          "_to": "- The address of the recipient. "
        },
        "return": "True if the function executes successfully, false otherwise. "
      },
      "transfer(address,uint256)": {
        "params": {
          "_to": "- The recipient address which will receive the tokens.",
          "_value": "- The total amount of tokens which will be sent. "
        },
        "return": "True if the function executes successfully, false otherwise. "
      },
      "transferFrom(address,address,uint256)": {
        "params": {
          "_from": "- The wallet address of the owner. ",
          "_value": "- The total amount of tokens to transfer.  "
        },
        "return": "True if the function executes successfully, false otherwise. "
      },
      "transferOwnership(address)": {
        "params": {
          "_newOwner": "- The address of the new owner. "
        }
      }
    }
  },
  "userdoc": {
    "methods": {
      "allowance(address,address)": {
        "notice": "Allows anyone to query the token contract to see how many tokens an owner  of tokens has allowed a spender to spend from the owner's balance.  "
      },
      "approve(address,uint256)": {
        "notice": "Allows an owner of tokens to approve some spender to spend up  to a specified amount of tokens from the owner's wallet address.  "
      },
      "assignOwner(address)": {
        "notice": "Initializes the owner variable with an address (can only be invoked once). "
      },
      "balanceOf(address)": {
        "notice": "Allows anyone to query the balance of a given address. "
      },
      "burnTokens(uint256)": {
        "notice": "Allows the owner of the contract to burn tokens from the total supply  if and only if the token was declared as a burnable one in the constructor of the contract.  "
      },
      "constructor": "Initializes the state variables of the token contract, assigns the owner to be  the address from which the transaction originated and also sends all tokens to  the owner. ",
      "getOwner()": {
        "notice": "Returns the ETH address of the owner of any contract which  inherits this contract. "
      },
      "mintTokens(address,uint256)": {
        "notice": "ALlows the owner of the contract to mint new tokens to any wallet  address if and only if the token was declared as a mintable one in  the constructor of the contract.  "
      },
      "transfer(address,uint256)": {
        "notice": "Allows token holders to tranfer their tokens to other ETH addresses.  "
      },
      "transferFrom(address,address,uint256)": {
        "notice": "Allows a spender who has been approved by an owner of the token to  spend tokens from the owner's wallet address.  "
      },
      "transferOwnership(address)": {
        "notice": "Allows the current owner of the contract and all contracts  which inherit this contract to transfer ownership to another  ETH address. This function can only be invoked by the owner  of the contract.  "
      }
    }
  }
}