{
  "contractName": "ICOTemplate",
  "abi": [
    {
      "constant": true,
      "inputs": [],
      "name": "deadline",
      "outputs": [
        {
          "name": "",
          "type": "uint256"
        }
      ],
      "payable": false,
      "stateMutability": "view",
      "type": "function"
    },
    {
      "constant": true,
      "inputs": [],
      "name": "softCapReached",
      "outputs": [
        {
          "name": "",
          "type": "bool"
        }
      ],
      "payable": false,
      "stateMutability": "view",
      "type": "function"
    },
    {
      "constant": true,
      "inputs": [],
      "name": "rate",
      "outputs": [
        {
          "name": "",
          "type": "uint256"
        }
      ],
      "payable": false,
      "stateMutability": "view",
      "type": "function"
    },
    {
      "constant": true,
      "inputs": [],
      "name": "tokenDecimals",
      "outputs": [
        {
          "name": "",
          "type": "uint256"
        }
      ],
      "payable": false,
      "stateMutability": "view",
      "type": "function"
    },
    {
      "constant": true,
      "inputs": [],
      "name": "tokensSold",
      "outputs": [
        {
          "name": "",
          "type": "uint256"
        }
      ],
      "payable": false,
      "stateMutability": "view",
      "type": "function"
    },
    {
      "constant": false,
      "inputs": [
        {
          "name": "_owner",
          "type": "address"
        }
      ],
      "name": "assignOwner",
      "outputs": [],
      "payable": false,
      "stateMutability": "nonpayable",
      "type": "function"
    },
    {
      "constant": true,
      "inputs": [],
      "name": "getOwner",
      "outputs": [
        {
          "name": "",
          "type": "address"
        }
      ],
      "payable": false,
      "stateMutability": "view",
      "type": "function"
    },
    {
      "constant": true,
      "inputs": [
        {
          "name": "",
          "type": "address"
        }
      ],
      "name": "investments",
      "outputs": [
        {
          "name": "",
          "type": "uint256"
        }
      ],
      "payable": false,
      "stateMutability": "view",
      "type": "function"
    },
    {
      "constant": true,
      "inputs": [],
      "name": "ethSoftCap",
      "outputs": [
        {
          "name": "",
          "type": "uint256"
        }
      ],
      "payable": false,
      "stateMutability": "view",
      "type": "function"
    },
    {
      "constant": true,
      "inputs": [],
      "name": "icoCancelled",
      "outputs": [
        {
          "name": "",
          "type": "bool"
        }
      ],
      "payable": false,
      "stateMutability": "view",
      "type": "function"
    },
    {
      "constant": false,
      "inputs": [
        {
          "name": "_newOwner",
          "type": "address"
        }
      ],
      "name": "transferOwnership",
      "outputs": [],
      "payable": false,
      "stateMutability": "nonpayable",
      "type": "function"
    },
    {
      "constant": true,
      "inputs": [],
      "name": "token",
      "outputs": [
        {
          "name": "",
          "type": "address"
        }
      ],
      "payable": false,
      "stateMutability": "view",
      "type": "function"
    },
    {
      "inputs": [
        {
          "name": "_tokenAddress",
          "type": "address"
        },
        {
          "name": "_tokenDecimals",
          "type": "uint256"
        },
        {
          "name": "_ethSoftCap",
          "type": "uint256"
        },
        {
          "name": "_rate",
          "type": "uint256"
        },
        {
          "name": "_durationInDays",
          "type": "uint256"
        },
        {
          "name": "_owner",
          "type": "address"
        }
      ],
      "payable": false,
      "stateMutability": "nonpayable",
      "type": "constructor"
    },
    {
      "payable": true,
      "stateMutability": "payable",
      "type": "fallback"
    },
    {
      "anonymous": false,
      "inputs": [
        {
          "indexed": true,
          "name": "by",
          "type": "address"
        },
        {
          "indexed": false,
          "name": "totalTokensPurchased",
          "type": "uint256"
        }
      ],
      "name": "TokensPurchased",
      "type": "event"
    },
    {
      "anonymous": false,
      "inputs": [
        {
          "indexed": true,
          "name": "from",
          "type": "address"
        },
        {
          "indexed": true,
          "name": "to",
          "type": "address"
        }
      ],
      "name": "OwnershipTransferred",
      "type": "event"
    },
    {
      "constant": true,
      "inputs": [],
      "name": "getTotalTokensSold",
      "outputs": [
        {
          "name": "",
          "type": "uint256"
        }
      ],
      "payable": false,
      "stateMutability": "view",
      "type": "function"
    },
    {
      "constant": true,
      "inputs": [],
      "name": "icoHasEnded",
      "outputs": [
        {
          "name": "",
          "type": "bool"
        }
      ],
      "payable": false,
      "stateMutability": "view",
      "type": "function"
    },
    {
      "constant": true,
      "inputs": [],
      "name": "getTokenAddress",
      "outputs": [
        {
          "name": "",
          "type": "address"
        }
      ],
      "payable": false,
      "stateMutability": "view",
      "type": "function"
    },
    {
      "constant": false,
      "inputs": [
        {
          "name": "_investor",
          "type": "address"
        }
      ],
      "name": "buyTokens",
      "outputs": [],
      "payable": true,
      "stateMutability": "payable",
      "type": "function"
    },
    {
      "constant": false,
      "inputs": [],
      "name": "claimRefund",
      "outputs": [],
      "payable": false,
      "stateMutability": "nonpayable",
      "type": "function"
    },
    {
      "constant": false,
      "inputs": [],
      "name": "withdrawEth",
      "outputs": [],
      "payable": false,
      "stateMutability": "nonpayable",
      "type": "function"
    },
    {
      "constant": false,
      "inputs": [
        {
          "name": "_to",
          "type": "address"
        },
        {
          "name": "_tokensToWithdraw",
          "type": "uint256"
        }
      ],
      "name": "withdrawTokens",
      "outputs": [],
      "payable": false,
      "stateMutability": "nonpayable",
      "type": "function"
    },
    {
      "constant": false,
      "inputs": [
        {
          "name": "_newRate",
          "type": "uint256"
        }
      ],
      "name": "changeRate",
      "outputs": [],
      "payable": false,
      "stateMutability": "nonpayable",
      "type": "function"
    },
    {
      "constant": false,
      "inputs": [],
      "name": "cancelICO",
      "outputs": [],
      "payable": false,
      "stateMutability": "nonpayable",
      "type": "function"
    },
    {
      "constant": false,
      "inputs": [
        {
          "name": "_newDeadline",
          "type": "uint256"
        }
      ],
      "name": "shortenDeadline",
      "outputs": [],
      "payable": false,
      "stateMutability": "nonpayable",
      "type": "function"
    }
  ],
  "bytecode": "0x608060405234801561001057600080fd5b5060405160c08062000fc5833981018060405260c081101561003157600080fd5b508051602082015160408301516060840151608085015160a09095015160018054600160a060020a031916600160a060020a03871617905560028490556003839055600482905593949293919290916100b161009d83620151806401000000006100e18102610dc31704565b4290640100000000610df561011582021704565b6005556006805461ffff1916905560006007556100d681640100000000610127810204565b50505050505061015f565b60008215156100f25750600061010f565b82820282848281151561010157fe5b041461010c57600080fd5b90505b92915050565b60008282018381101561010c57600080fd5b600054600160a060020a03161561013d57600080fd5b60008054600160a060020a031916600160a060020a0392909216919091179055565b610e56806200016f6000396000f3fe6080604052600436106101275763ffffffff7c010000000000000000000000000000000000000000000000000000000060003504166306b091f9811461013257806310fe9ae81461016b57806329dcb0cf1461019c5780632b9edee9146101c35780632c4e722e146101ec5780633b97e85614610201578063518ab2a814610216578063680a50cb1461022b57806374e7493b146102555780637f12caaa1461027f578063893d20e8146102b257806394c33163146102c757806396b98862146102dc5780639fac9abf1461030f578063a0ef91df14610324578063b21307e914610339578063b5545a3c1461034e578063bdeaa88f14610363578063bf2c13c114610378578063ec8ac4d81461038d578063f2fde38b146103b3578063fc0c546a146103e6575b610130336103fb565b005b34801561013e57600080fd5b506101306004803603604081101561015557600080fd5b50600160a060020a0381351690602001356106ac565b34801561017757600080fd5b5061018061079b565b60408051600160a060020a039092168252519081900360200190f35b3480156101a857600080fd5b506101b16107aa565b60408051918252519081900360200190f35b3480156101cf57600080fd5b506101d86107b0565b604080519115158252519081900360200190f35b3480156101f857600080fd5b506101b16107b9565b34801561020d57600080fd5b506101b16107bf565b34801561022257600080fd5b506101b16107c5565b34801561023757600080fd5b506101306004803603602081101561024e57600080fd5b50356107cb565b34801561026157600080fd5b506101306004803603602081101561027857600080fd5b5035610867565b34801561028b57600080fd5b50610130600480360360208110156102a257600080fd5b5035600160a060020a031661093a565b3480156102be57600080fd5b5061018061097f565b3480156102d357600080fd5b506101b161098e565b3480156102e857600080fd5b506101b1600480360360208110156102ff57600080fd5b5035600160a060020a0316610994565b34801561031b57600080fd5b506101d86109a6565b34801561033057600080fd5b506101306109c4565b34801561034557600080fd5b506101b1610afe565b34801561035a57600080fd5b50610130610b04565b34801561036f57600080fd5b50610130610be1565b34801561038457600080fd5b506101d8610c42565b610130600480360360208110156103a357600080fd5b5035600160a060020a03166103fb565b3480156103bf57600080fd5b50610130600480360360208110156103d657600080fd5b5035600160a060020a0316610c50565b3480156103f257600080fd5b50610180610d8e565b600160a060020a0381161515610481576040805160e560020a62461bcd02815260206004820152602860248201527f54686520696e766573746f7220616464726573732063616e6e6f74206265203060448201527f7830302e2e2e3030000000000000000000000000000000000000000000000000606482015290519081900360840190fd5b6104896109a6565b15610504576040805160e560020a62461bcd02815260206004820152603560248201527f54686520646561646c696e652068617320706173736564206f7220746865204960448201527f434f20686173206265656e2063616e63656c6c65640000000000000000000000606482015290519081900360840190fd5b6000610548610529600254600a0a670de0b6b3a7640000610d9d90919063ffffffff16565b60045461053c903463ffffffff610dc316565b9063ffffffff610d9d16565b600154604080517fa9059cbb000000000000000000000000000000000000000000000000000000008152600160a060020a03868116600483015260248201859052915193945091169163a9059cbb916044808201926020929091908290030181600087803b1580156105b957600080fd5b505af11580156105cd573d6000803e3d6000fd5b505050506040513d60208110156105e357600080fd5b5050604080518281529051600160a060020a038416917f8f28852646c20cc973d3a8218f7eefed58c25c909f78f0265af4818c3d4dc271919081900360200190a260035430311080159061063a575060065460ff16155b1561064d576006805460ff191660011790555b600754610660908263ffffffff610df516565b600755600160a060020a03821660009081526008602052604090205461068c903463ffffffff610df516565b600160a060020a0390921660009081526008602052604090209190915550565b600054600160a060020a031633146106fc576040805160e560020a62461bcd02815260206004820152601b6024820152600080516020610e0b833981519152604482015290519081900360640190fd5b600154604080517fa9059cbb000000000000000000000000000000000000000000000000000000008152600160a060020a038581166004830152602482018590529151919092169163a9059cbb9160448083019260209291908290030181600087803b15801561076b57600080fd5b505af115801561077f573d6000803e3d6000fd5b505050506040513d602081101561079557600080fd5b50505050565b600154600160a060020a031690565b60055481565b60065460ff1681565b60045481565b60025481565b60075481565b600054600160a060020a0316331461081b576040805160e560020a62461bcd02815260206004820152601b6024820152600080516020610e0b833981519152604482015290519081900360640190fd5b600554610841610834836201518063ffffffff610dc316565b429063ffffffff610df516565b1061084b57600080fd5b610861610834826201518063ffffffff610dc316565b60055550565b600054600160a060020a031633146108b7576040805160e560020a62461bcd02815260206004820152601b6024820152600080516020610e0b833981519152604482015290519081900360640190fd5b60008111610935576040805160e560020a62461bcd02815260206004820152602660248201527f546865206e65772072617465206d75737420626520677265617465722074686160448201527f6e207a65726f0000000000000000000000000000000000000000000000000000606482015290519081900360840190fd5b600455565b600054600160a060020a03161561095057600080fd5b6000805473ffffffffffffffffffffffffffffffffffffffff1916600160a060020a0392909216919091179055565b600054600160a060020a031690565b60075490565b60086020526000908152604090205481565b60006005544211806109bf5750600654610100900460ff165b905090565b600054600160a060020a03163314610a14576040805160e560020a62461bcd02815260206004820152601b6024820152600080516020610e0b833981519152604482015290519081900360640190fd5b60065460ff168015610a2e5750600654610100900460ff16155b1515610aaa576040805160e560020a62461bcd02815260206004820152602560248201527f5769746864726177616c73206e6f7420706f737369626c65206174207468697360448201527f2074696d65000000000000000000000000000000000000000000000000000000606482015290519081900360840190fd5b610ac3610ab561097f565b600160a060020a0316610e07565b604051600160a060020a039190911690303180156108fc02916000818181858888f19350505050158015610afb573d6000803e3d6000fd5b50565b60035481565b60065460ff16158015610b1a5750610b1a6109a6565b80610b2c5750600654610100900460ff165b1515610b82576040805160e560020a62461bcd02815260206004820181905260248201527f4e6f20726566756e647320706f737369626c6520617420746869732074696d65604482015290519081900360640190fd5b3360009081526008602052604081205411610b9c57600080fd5b33600081815260086020526040808220805490839055905190929183156108fc02918491818181858888f19350505050158015610bdd573d6000803e3d6000fd5b5050565b600054600160a060020a03163314610c31576040805160e560020a62461bcd02815260206004820152601b6024820152600080516020610e0b833981519152604482015290519081900360640190fd5b6006805461ff001916610100179055565b600654610100900460ff1681565b600054600160a060020a03163314610ca0576040805160e560020a62461bcd02815260206004820152601b6024820152600080516020610e0b833981519152604482015290519081900360640190fd5b600160a060020a0381161515610d26576040805160e560020a62461bcd02815260206004820152602b60248201527f546865206e6577206f776e6572277320616464726573732063616e6e6f74206260448201527f6520307830302e2e2e3030000000000000000000000000000000000000000000606482015290519081900360840190fd5b60008054604051600160a060020a03808516939216917f8be0079c531659141344cd1fd0a4f28419497f9722a3daafe3b4186f6b6457e091a36000805473ffffffffffffffffffffffffffffffffffffffff1916600160a060020a0392909216919091179055565b600154600160a060020a031681565b6000808211610dab57600080fd5b60008284811515610db857fe5b049150505b92915050565b6000821515610dd457506000610dbd565b828202828482811515610de357fe5b0414610dee57600080fd5b9392505050565b600082820183811015610dee57600080fd5b9056fe6d73672e73656e646572206973206e6f7420746865206f776e65720000000000a165627a7a72305820c28c02726fc6be5d30427ce35835aec859d2148f9c8e45439d5cc81e9d5639300029",
  "source": "pragma solidity ^0.5.0;\n\nimport \"./SafeMath.sol\";\nimport \"./AddressMakePayable.sol\";\nimport \"./InterfaceERC20.sol\";\nimport \"./Owned.sol\";\n\n\ncontract ICOTemplate is Owned {\n    \n    //Use the SafeMath library functions on the uint256 data type.\n    using SafeMath for uint;\n    \n    //Use the AddressMakePayable library functions on the address data type\n    using AddressMakePayable for address;\n    \n    \n    /**\n    * Will point to the token contract on the Ethereum blockchain\n    * by the token's address. When instantiated, the token's functions \n    * will invoced from here. \n    **/\n    InterfaceERC20 public token;\n    \n    uint public tokenDecimals;\n    //ethSoftCap represents the minimum amount of ETH that needs to be raised for \n    //the ico to be a success. \n    uint public ethSoftCap;\n    //The rate is how many tokens are issued per 1 ETH invested. \n    uint public rate;\n    //The deadline is specified in days using Unix time \n    uint public deadline;\n    //softCapReached will become true when the minimum minimum amount of ETH needed \n    //for the ICO to be a success has been raised.\n    bool public softCapReached;\n    //Will become true only if the owner of the ICO contract decides to cancel the ICO. \n    bool public icoCancelled; \n    //Will be updated everytime tokens are purchased. \n    uint public tokensSold;\n    \n    /**\n    * This mapping will hold a record of all investments which invstors \n    * have made during the ICO. It will use the user's address as the key \n    * which will map to an unsigned integer representing the total investment \n    * made by the user in units of wei (1 wei * (10**18) = 1 ETH).\n    * */\n    mapping (address => uint) public investments;\n    \n    \n    /**\n    * Initializes the state variables of the ICO contract and also assigns the owner to \n    * be the address from which the transaction originated.\n    * \n    * @param _tokenAddress - The contract address of the ERC20 token which will be on sale.\n    * @param _tokenDecimals - The number of decimals of the ERC20 token\n    * @param _ethSoftCap - The minimum amount of ETH that needs to be raised. \n    * @param _rate - The exchange rate of ETH to the token. \n    * @param _durationInDays - The total amount of days the ICO will be active for.\n    * */\n    constructor(address _tokenAddress, uint _tokenDecimals, uint _ethSoftCap, uint _rate, uint _durationInDays, address _owner) public {\n        //Take the address of the erc20 token and create an instance of InterfaceERC20\n        //which will be the object from which the token's transfer function will be invoked\n        //when investors purchase tokens from this ICO contract. \n        token = InterfaceERC20(_tokenAddress);\n        tokenDecimals = _tokenDecimals;\n        ethSoftCap = _ethSoftCap;\n        rate = _rate;\n        deadline = now.add(_durationInDays.mul(1 days));\n        softCapReached = false;\n        icoCancelled = false;\n        tokensSold = 0;\n        //Pass the owner's address (i.e., the one who is creating the ICO contract) to\n        //the Owned.sol smart contract. This is done because only the owner will be allowed\n        //to invoke certain functions (look at the onlyOwner modifier in the Owned.sol contract)\n        assignOwner(_owner);\n    }\n    \n    \n    /**\n    * Event is broadcast to the Ethereum blockchain to signify \n    * that a token purchase has just been made. \n    * */\n    event TokensPurchased (\n        address indexed by,\n        uint totalTokensPurchased\n    );\n    \n    \n    /**\n    * Allows anyone to query the total amount of tokens sold on the ICO \n    * contract.\n    *\n    * @return The total amount of tokens sold. \n    * */\n    function getTotalTokensSold() public view returns(uint) {\n        return tokensSold;\n    }\n\n\n    /**\n    * Allows anyone to query if the ICO has ended. \n    *\n    * @return True if the ICO deadline has passsed, or if the ICO has \n    * been cancelled. False otherwise. \n    **/\n    function icoHasEnded() public view returns(bool) {\n        return (now > deadline || icoCancelled);\n    }\n\n\n\n    /**\n    * Allows anyone to query the contract address of the ERC20 token \n    * on sale. \n    *\n    * @return The contract address of the ERC20 token on sale. \n    **/\n    function getTokenAddress() public view returns(address) {\n        return address(token);\n    }\n    \n    \n    /**\n    * This is a fallback function which is only ever invoced at the time \n    * when the address of the ICO contract receives ETH. This is because\n    * when ETH is sent to the contract address, the EVM will look to \n    * execute a function and when it does not find a suitable function \n    * it will default to the fallback function. \n    * \n    * It is also worth noting that this function is a payable function \n    * meaning that the function accepts ETH. Without any payable functions \n    * in a smart contract, the contract cannot store any ETH sent to it. \n    * \n    * This function allows investors to simply send ETH to the ICO contract \n    * address and they will automatically receive tokens to the same address \n    * of which they sent ETH from. This is because this fallback function \n    * invoces the 'buyTokens' funciton and passes through msg.sender as the \n    * argument (this means the address of the investor).\n    **/\n    function() external payable {\n        buyTokens(msg.sender);\n    }\n    \n    \n    \n    /**\n    * Allows investors to buy tokens with ETH. This function is a special \n    * type of function because it has the 'payable' modifier meaning that \n    * it is a function that accepts ETH as part of the function invocation. \n    * The ETH that is received as part of the transaction is taken into \n    * account and the tokens to be sent to the investor in return is \n    * calculated at the given exchange rate set by the owner of the contract. \n    * \n    * This function can either be invoced manually, or it can be invoced \n    * internally by the fallback function of the contract. In 99% of cases\n    * the function will be invoced by the fallback function (described above). \n    * \n    * @param _investor - The address of the investor of which the tokens \n    * purchased shall be sent to. \n    * */\n    function buyTokens(address _investor) public payable {\n        //First check that the _investor address provided is not of the form 0x00...00\n        require(_investor != address(0x0), \"The investor address cannot be 0x00...00\");\n        //Next check that the ICO is still active. \n        require(!icoHasEnded(), \"The deadline has passed or the ICO has been cancelled\");\n        //Calculate how many tokens need to be sent to the investor based on the total \n        //amount of ETH the investor sent to the ICO contract. \n        uint tokensPurchased = (rate.mul(msg.value)).div(uint(1e18).div(10**tokenDecimals));\n        //Now send the tokens to the investor. \n        token.transfer(_investor, tokensPurchased);\n        //Broadcast the token purchase event to the Ethereum network.\n        emit TokensPurchased(\n            _investor, \n            tokensPurchased\n        );\n        //Now check if the soft cap has been reached. \n        if(address(this).balance >= ethSoftCap && !softCapReached) {\n            //When this condition is met the owner of the ICO contract will be\n            //allowed to withdraw all the ETH from the contract. \n            softCapReached = true;\n        }\n        //Update the variable with the total amount of tokens sold.\n        tokensSold = tokensSold.add(tokensPurchased);\n        //Update the investments mapping from the investor's address.\n        //This is done incase the ICO fails or is cancelled, the investor \n        //will be able to claim a full refund using this mapping. \n        investments[_investor] = investments[_investor].add(msg.value);\n    }\n\n    \n    /**\n    * Allows investors to claim a refund if the softcap has not been \n    * reached before the deadline, or if the ICO has been cancelled \n    * by the owner. \n    * */\n    function claimRefund() public {\n        //Check if the ICO deadline has passed and the soft cap has \n        //not been reached, or if the ICO has been cancelled. \n        require(!softCapReached && icoHasEnded() || icoCancelled, \"No refunds possible at this time\");\n        //Important to check that the investmet of the user claiming a refund \n        //is greater than 0.\n        require(investments[msg.sender] > 0);\n        //This variable assignment of the user's investment is very important \n        //as it mitigates the possibilty of a reentrancy attack. For example,\n        //an attacker could create a smart contract and send ETH from the smart \n        //contract to this ICO contract. The attacker will have created a loop\n        //in the smart contract to claim a refund many times in a single transaction\n        //draining this contract by taking advantage of a race condition. \n        uint toRefund = investments[msg.sender];\n        //Now we set the investments mapping with the investor's address to be 0.\n        //At this point a reentrancy attack is not possible due to the second \n        //requirement above. \n        investments[msg.sender] = 0;\n        //Now send the full ETH refund to the user. \n        msg.sender.transfer(toRefund);\n    }\n    \n    \n    /**\n     * Allows the owner of the contract to withdraw all the ETH which is \n     * in the contract given that the softcap has been reached prior to \n     * the deadline and also if the owner of the contract did not cancel \n     * the ICO. \n     **/\n    function withdrawEth() public onlyOwner {\n        //Check that the soft cap has been reached and that the ICO has\n        //not been cancelled before allowing the owner to withdraw the \n        //ETH in the contract. \n        require(softCapReached && !icoCancelled, \"Withdrawals not possible at this time\");\n        //Now send all the ETH in the smart contract to the owner. \n        getOwner().makePayable().transfer(address(this).balance);\n    }\n    \n    \n    /**\n    * Allows the owner of the ICO to withdraw tokens from the contract.\n    * \n    * @param _to - The address to send the tokens to.\n    * @param _tokensToWithdraw - The amount of tokens to withdraw. \n    **/\n    function withdrawTokens(address _to, uint _tokensToWithdraw) public onlyOwner {\n        token.transfer(_to, _tokensToWithdraw);\n    }\n    \n    \n    /**\n    * Allows the owner of the contract to set a new exchange rate at which \n    * tokens will be sold. \n    * \n    * @param _newRate - The new exchange rate. \n    **/\n    function changeRate(uint _newRate) public onlyOwner {\n        //Check that the owner has provided a value which is greater than 0.\n        require(_newRate > 0, \"The new rate must be greater than zero\");\n        rate = _newRate;\n    }\n    \n    \n    /**\n    * Allows the owner of the ICO contract to cancel the ICO. \n    **/\n    function cancelICO() public onlyOwner {\n        icoCancelled = true;\n    }\n    \n    \n    /**\n    * Allows the owner of the contract to shorten the deadline of the ICO.\n    * \n    * @param _newDeadline - The new deadline in days from the moment of \n    * invocation.\n    * */\n    function shortenDeadline(uint _newDeadline) public onlyOwner {\n        //Check that the new deadline is earlier than the old deadline. \n        require(now.add(_newDeadline.mul(1 days)) < deadline);\n        deadline = now.add(_newDeadline.mul(1 days));\n    }\n}\n",
  "sourcePath": "/home/zenos/university/final_year_project/project_code/smart_contracts/contracts/ICOTemplate.sol",
  "compiler": {
    "name": "solc",
    "version": "0.5.0+commit.1d4f565a.Emscripten.clang"
  },
  "schemaVersion": "3.0.6",
  "updatedAt": "2019-04-20T14:10:42.590Z",
  "devdoc": {
    "methods": {
      "buyTokens(address)": {
        "params": {
          "_investor": "- The address of the investor of which the tokens  purchased shall be sent to. "
        }
      },
      "changeRate(uint256)": {
        "params": {
          "_newRate": "- The new exchange rate. *"
        }
      },
      "constructor": {
        "params": {
          "_durationInDays": "- The total amount of days the ICO will be active for.",
          "_ethSoftCap": "- The minimum amount of ETH that needs to be raised. ",
          "_rate": "- The exchange rate of ETH to the token. ",
          "_tokenAddress": "- The contract address of the ERC20 token which will be on sale.",
          "_tokenDecimals": "- The number of decimals of the ERC20 token"
        }
      },
      "getOwner()": {
        "return": "The address of the owner."
      },
      "getTokenAddress()": {
        "return": "The contract address of the ERC20 token on sale. *"
      },
      "getTotalTokensSold()": {
        "return": "The total amount of tokens sold. "
      },
      "icoHasEnded()": {
        "return": "True if the ICO deadline has passsed, or if the ICO has  been cancelled. False otherwise. *"
      },
      "shortenDeadline(uint256)": {
        "params": {
          "_newDeadline": "- The new deadline in days from the moment of  invocation."
        }
      },
      "transferOwnership(address)": {
        "params": {
          "_newOwner": "- The address of the new owner. "
        }
      },
      "withdrawTokens(address,uint256)": {
        "params": {
          "_to": "- The address to send the tokens to.",
          "_tokensToWithdraw": "- The amount of tokens to withdraw. *"
        }
      }
    }
  },
  "userdoc": {
    "methods": {
      "assignOwner(address)": {
        "notice": "Initializes the owner variable with an address (can only be invoked once). "
      },
      "buyTokens(address)": {
        "notice": "Allows investors to buy tokens with ETH. This function is a special  type of function because it has the 'payable' modifier meaning that  it is a function that accepts ETH as part of the function invocation.  The ETH that is received as part of the transaction is taken into  account and the tokens to be sent to the investor in return is  calculated at the given exchange rate set by the owner of the contract.      * This function can either be invoced manually, or it can be invoced  internally by the fallback function of the contract. In 99% of cases the function will be invoced by the fallback function (described above).  "
      },
      "cancelICO()": {
        "notice": "Allows the owner of the ICO contract to cancel the ICO. *"
      },
      "changeRate(uint256)": {
        "notice": "Allows the owner of the contract to set a new exchange rate at which  tokens will be sold.  "
      },
      "claimRefund()": {
        "notice": "Allows investors to claim a refund if the softcap has not been  reached before the deadline, or if the ICO has been cancelled  by the owner. "
      },
      "constructor": "Initializes the state variables of the ICO contract and also assigns the owner to  be the address from which the transaction originated. ",
      "getOwner()": {
        "notice": "Returns the ETH address of the owner of any contract which  inherits this contract. "
      },
      "getTokenAddress()": {
        "notice": "Allows anyone to query the contract address of the ERC20 token  on sale. "
      },
      "getTotalTokensSold()": {
        "notice": "Allows anyone to query the total amount of tokens sold on the ICO  contract."
      },
      "icoHasEnded()": {
        "notice": "Allows anyone to query if the ICO has ended. "
      },
      "shortenDeadline(uint256)": {
        "notice": "Allows the owner of the contract to shorten the deadline of the ICO. "
      },
      "transferOwnership(address)": {
        "notice": "Allows the current owner of the contract and all contracts  which inherit this contract to transfer ownership to another  ETH address. This function can only be invoked by the owner  of the contract.  "
      },
      "withdrawEth()": {
        "notice": "Allows the owner of the contract to withdraw all the ETH which is  in the contract given that the softcap has been reached prior to  the deadline and also if the owner of the contract did not cancel  the ICO. *"
      },
      "withdrawTokens(address,uint256)": {
        "notice": "Allows the owner of the ICO to withdraw tokens from the contract. "
      }
    }
  }
}