{
  "contractName": "Owned",
  "abi": [
    {
      "anonymous": false,
      "inputs": [
        {
          "indexed": true,
          "name": "from",
          "type": "address"
        },
        {
          "indexed": true,
          "name": "to",
          "type": "address"
        }
      ],
      "name": "OwnershipTransferred",
      "type": "event"
    },
    {
      "constant": true,
      "inputs": [],
      "name": "getOwner",
      "outputs": [
        {
          "name": "",
          "type": "address"
        }
      ],
      "payable": false,
      "stateMutability": "view",
      "type": "function"
    },
    {
      "constant": false,
      "inputs": [
        {
          "name": "_owner",
          "type": "address"
        }
      ],
      "name": "assignOwner",
      "outputs": [],
      "payable": false,
      "stateMutability": "nonpayable",
      "type": "function"
    },
    {
      "constant": false,
      "inputs": [
        {
          "name": "_newOwner",
          "type": "address"
        }
      ],
      "name": "transferOwnership",
      "outputs": [],
      "payable": false,
      "stateMutability": "nonpayable",
      "type": "function"
    }
  ],
  "bytecode": "0x608060405234801561001057600080fd5b506102f2806100206000396000f3fe6080604052600436106100565763ffffffff7c01000000000000000000000000000000000000000000000000000000006000350416637f12caaa811461005b578063893d20e814610090578063f2fde38b146100c1575b600080fd5b34801561006757600080fd5b5061008e6004803603602081101561007e57600080fd5b5035600160a060020a03166100f4565b005b34801561009c57600080fd5b506100a5610139565b60408051600160a060020a039092168252519081900360200190f35b3480156100cd57600080fd5b5061008e600480360360208110156100e457600080fd5b5035600160a060020a0316610148565b600054600160a060020a03161561010a57600080fd5b6000805473ffffffffffffffffffffffffffffffffffffffff1916600160a060020a0392909216919091179055565b600054600160a060020a031690565b600054600160a060020a031633146101c157604080517f08c379a000000000000000000000000000000000000000000000000000000000815260206004820152601b60248201527f6d73672e73656e646572206973206e6f7420746865206f776e65720000000000604482015290519081900360640190fd5b600160a060020a038116151561025e57604080517f08c379a000000000000000000000000000000000000000000000000000000000815260206004820152602b60248201527f546865206e6577206f776e6572277320616464726573732063616e6e6f74206260448201527f6520307830302e2e2e3030000000000000000000000000000000000000000000606482015290519081900360840190fd5b60008054604051600160a060020a03808516939216917f8be0079c531659141344cd1fd0a4f28419497f9722a3daafe3b4186f6b6457e091a36000805473ffffffffffffffffffffffffffffffffffffffff1916600160a060020a039290921691909117905556fea165627a7a72305820138d858bce368cc4fcaa486edb99afd2176d335397c98e604e97534ec28b6a4a0029",
  "source": "pragma solidity ^0.5.0;\n\ncontract Owned {\n    \n    //Holds the address of the current owner of the contract. \n    address private owner;\n    \n\n    /**\n     * Event is broadcast to the Ethereum blockchain to signify \n     * that a new owner has been assigned. \n     * */\n    event OwnershipTransferred(\n        address indexed from,\n        address indexed to\n    );\n    \n    \n       \n    /**\n     * Any function with this modifier can only be invoked by the \n     * owner of this contract and all other contracts whcih inherit \n     * this contract. \n     * */\n    modifier onlyOwner {\n        require(msg.sender == owner, \"msg.sender is not the owner\");\n        _;\n    }\n    \n   \n    /**\n     * Returns the ETH address of the owner of any contract which \n     * inherits this contract.\n     * \n     * @return The address of the owner.\n     * */\n    function getOwner() public view returns(address) {\n        return owner;\n    }\n    \n    \n    \n    /**\n     * Initializes the owner variable with an address (can only be invoked once). \n     * */\n    function assignOwner(address _owner) public {\n        //Make sure the owner has not already been initialized.\n        require(owner == address(0x0));\n        owner = _owner;\n    }\n    \n\n    /**\n     * Allows the current owner of the contract and all contracts \n     * which inherit this contract to transfer ownership to another \n     * ETH address. This function can only be invoked by the owner \n     * of the contract. \n     * \n     * @param _newOwner - The address of the new owner. \n     * */\n    function transferOwnership(address _newOwner) public onlyOwner {\n        //Check that the address is not 0x00.....00\n        require(_newOwner != address(0x0), \"The new owner's address cannot be 0x00...00\");\n        //Broadcast the transfer of ownership event to the Ethereum network.\n        emit OwnershipTransferred(\n            owner,\n            _newOwner\n        );\n        owner = _newOwner;\n    }\n}\n",
  "sourcePath": "/home/zenos/university/final_year_project/project_code/smart_contracts/contracts/Owned.sol",
  "compiler": {
    "name": "solc",
    "version": "0.5.0+commit.1d4f565a.Emscripten.clang"
  },
  "schemaVersion": "3.0.6",
  "updatedAt": "2019-04-20T14:10:42.603Z",
  "devdoc": {
    "methods": {
      "getOwner()": {
        "return": "The address of the owner."
      },
      "transferOwnership(address)": {
        "params": {
          "_newOwner": "- The address of the new owner. "
        }
      }
    }
  },
  "userdoc": {
    "methods": {
      "assignOwner(address)": {
        "notice": "Initializes the owner variable with an address (can only be invoked once). "
      },
      "getOwner()": {
        "notice": "Returns the ETH address of the owner of any contract which  inherits this contract. "
      },
      "transferOwnership(address)": {
        "notice": "Allows the current owner of the contract and all contracts  which inherit this contract to transfer ownership to another  ETH address. This function can only be invoked by the owner  of the contract.  "
      }
    }
  }
}